{
  "abi": [
    {
      "inputs": [],
      "stateMutability": "nonpayable",
      "type": "constructor"
    },
    {
      "anonymous": false,
      "inputs": [
        {
          "indexed": true,
          "internalType": "address",
          "name": "masterContract",
          "type": "address"
        },
        {
          "indexed": false,
          "internalType": "bytes",
          "name": "data",
          "type": "bytes"
        },
        {
          "indexed": true,
          "internalType": "address",
          "name": "cloneAddress",
          "type": "address"
        }
      ],
      "name": "LogDeploy",
      "type": "event"
    },
    {
      "anonymous": false,
      "inputs": [
        {
          "indexed": true,
          "internalType": "address",
          "name": "protocol",
          "type": "address"
        }
      ],
      "name": "LogRegisterProtocol",
      "type": "event"
    },
    {
      "anonymous": false,
      "inputs": [
        {
          "indexed": true,
          "internalType": "address",
          "name": "masterContract",
          "type": "address"
        },
        {
          "indexed": true,
          "internalType": "address",
          "name": "user",
          "type": "address"
        },
        {
          "indexed": false,
          "internalType": "bool",
          "name": "approved",
          "type": "bool"
        }
      ],
      "name": "LogSetMasterContractApproval",
      "type": "event"
    },
    {
      "anonymous": false,
      "inputs": [
        {
          "indexed": true,
          "internalType": "address",
          "name": "masterContract",
          "type": "address"
        },
        {
          "indexed": false,
          "internalType": "bool",
          "name": "approved",
          "type": "bool"
        }
      ],
      "name": "LogWhiteListMasterContract",
      "type": "event"
    },
    {
      "anonymous": false,
      "inputs": [
        {
          "indexed": true,
          "internalType": "address",
          "name": "previousOwner",
          "type": "address"
        },
        {
          "indexed": true,
          "internalType": "address",
          "name": "newOwner",
          "type": "address"
        }
      ],
      "name": "OwnershipTransferred",
      "type": "event"
    },
    {
      "inputs": [],
      "name": "DOMAIN_SEPARATOR",
      "outputs": [
        {
          "internalType": "bytes32",
          "name": "",
          "type": "bytes32"
        }
      ],
      "stateMutability": "view",
      "type": "function"
    },
    {
      "inputs": [],
      "name": "claimOwnership",
      "outputs": [],
      "stateMutability": "nonpayable",
      "type": "function"
    },
    {
      "inputs": [
        {
          "internalType": "address",
          "name": "masterContract",
          "type": "address"
        },
        {
          "internalType": "bytes",
          "name": "data",
          "type": "bytes"
        },
        {
          "internalType": "bool",
          "name": "useCreate2",
          "type": "bool"
        }
      ],
      "name": "deploy",
      "outputs": [
        {
          "internalType": "address",
          "name": "cloneAddress",
          "type": "address"
        }
      ],
      "stateMutability": "payable",
      "type": "function"
    },
    {
      "inputs": [
        {
          "internalType": "address",
          "name": "",
          "type": "address"
        },
        {
          "internalType": "address",
          "name": "",
          "type": "address"
        }
      ],
      "name": "masterContractApproved",
      "outputs": [
        {
          "internalType": "bool",
          "name": "",
          "type": "bool"
        }
      ],
      "stateMutability": "view",
      "type": "function"
    },
    {
      "inputs": [
        {
          "internalType": "address",
          "name": "",
          "type": "address"
        }
      ],
      "name": "masterContractOf",
      "outputs": [
        {
          "internalType": "address",
          "name": "",
          "type": "address"
        }
      ],
      "stateMutability": "view",
      "type": "function"
    },
    {
      "inputs": [
        {
          "internalType": "address",
          "name": "",
          "type": "address"
        }
      ],
      "name": "nonces",
      "outputs": [
        {
          "internalType": "uint256",
          "name": "",
          "type": "uint256"
        }
      ],
      "stateMutability": "view",
      "type": "function"
    },
    {
      "inputs": [],
      "name": "owner",
      "outputs": [
        {
          "internalType": "address",
          "name": "",
          "type": "address"
        }
      ],
      "stateMutability": "view",
      "type": "function"
    },
    {
      "inputs": [],
      "name": "pendingOwner",
      "outputs": [
        {
          "internalType": "address",
          "name": "",
          "type": "address"
        }
      ],
      "stateMutability": "view",
      "type": "function"
    },
    {
      "inputs": [],
      "name": "registerProtocol",
      "outputs": [],
      "stateMutability": "nonpayable",
      "type": "function"
    },
    {
      "inputs": [
        {
          "internalType": "address",
          "name": "user",
          "type": "address"
        },
        {
          "internalType": "address",
          "name": "masterContract",
          "type": "address"
        },
        {
          "internalType": "bool",
          "name": "approved",
          "type": "bool"
        },
        {
          "internalType": "uint8",
          "name": "v",
          "type": "uint8"
        },
        {
          "internalType": "bytes32",
          "name": "r",
          "type": "bytes32"
        },
        {
          "internalType": "bytes32",
          "name": "s",
          "type": "bytes32"
        }
      ],
      "name": "setMasterContractApproval",
      "outputs": [],
      "stateMutability": "nonpayable",
      "type": "function"
    },
    {
      "inputs": [
        {
          "internalType": "address",
          "name": "newOwner",
          "type": "address"
        },
        {
          "internalType": "bool",
          "name": "direct",
          "type": "bool"
        },
        {
          "internalType": "bool",
          "name": "renounce",
          "type": "bool"
        }
      ],
      "name": "transferOwnership",
      "outputs": [],
      "stateMutability": "nonpayable",
      "type": "function"
    },
    {
      "inputs": [
        {
          "internalType": "address",
          "name": "masterContract",
          "type": "address"
        },
        {
          "internalType": "bool",
          "name": "approved",
          "type": "bool"
        }
      ],
      "name": "whitelistMasterContract",
      "outputs": [],
      "stateMutability": "nonpayable",
      "type": "function"
    },
    {
      "inputs": [
        {
          "internalType": "address",
          "name": "",
          "type": "address"
        }
      ],
      "name": "whitelistedMasterContracts",
      "outputs": [
        {
          "internalType": "bool",
          "name": "",
          "type": "bool"
        }
      ],
      "stateMutability": "view",
      "type": "function"
    }
  ],
  "bytecode": {
    "object": "0x60c060405234801561001057600080fd5b50600080546001600160a01b0319163390811782556040519091907f8be0079c531659141344cd1fd0a4f28419497f9722a3daafe3b4186f6b6457e0908290a34660a081905261005f81610068565b608052506100e7565b604080517f8cad95687ba82c2ce50e74f7b754645e5117c3a5bec8151c0726d5857980a8666020808301919091527fd7df266aff736d415a9dc14b4158201d612e70d75b9c7f4e375ccfd20aa5166f828401526060820193909352306080808301919091528251808303909101815260a0909101909152805191012090565b60805160a0516110ff61010a600039806107f552508061082a52506110ff6000f3fe6080604052600436106100d25760003560e01c80637ecebe001161007f578063aee4d1b211610059578063aee4d1b2146102fb578063bafe4f1414610310578063c0a47c9314610343578063e30c39781461039d576100d2565b80637ecebe00146102785780638da5cb5b146102ab57806391e0eab5146102c0576100d2565b80633644e515116100b05780633644e515146102015780634e71e0c814610228578063733a9d7c1461023d576100d2565b8063078dfbe7146100d757806312a90c8a1461011c5780631f54245b14610163575b600080fd5b3480156100e357600080fd5b5061011a600480360360608110156100fa57600080fd5b506001600160a01b038135169060208101351515906040013515156103b2565b005b34801561012857600080fd5b5061014f6004803603602081101561013f57600080fd5b50356001600160a01b0316610532565b604080519115158252519081900360200190f35b6101e56004803603606081101561017957600080fd5b6001600160a01b0382351691908101906040810160208201356401000000008111156101a457600080fd5b8201836020820111156101b657600080fd5b803590602001918460018302840111640100000000831117156101d857600080fd5b9193509150351515610547565b604080516001600160a01b039092168252519081900360200190f35b34801561020d57600080fd5b506102166107f0565b60408051918252519081900360200190f35b34801561023457600080fd5b5061011a610850565b34801561024957600080fd5b5061011a6004803603604081101561026057600080fd5b506001600160a01b038135169060200135151561092a565b34801561028457600080fd5b506102166004803603602081101561029b57600080fd5b50356001600160a01b0316610a62565b3480156102b757600080fd5b506101e5610a74565b3480156102cc57600080fd5b5061014f600480360360408110156102e357600080fd5b506001600160a01b0381358116916020013516610a83565b34801561030757600080fd5b5061011a610aa3565b34801561031c57600080fd5b506101e56004803603602081101561033357600080fd5b50356001600160a01b0316610b02565b34801561034f57600080fd5b5061011a600480360360c081101561036657600080fd5b506001600160a01b038135811691602081013590911690604081013515159060ff6060820135169060808101359060a00135610b1d565b3480156103a957600080fd5b506101e561103b565b6000546001600160a01b03163314610411576040805162461bcd60e51b815260206004820181905260248201527f4f776e61626c653a2063616c6c6572206973206e6f7420746865206f776e6572604482015290519081900360640190fd5b81156104f9576001600160a01b03831615158061042b5750805b61047c576040805162461bcd60e51b815260206004820152601560248201527f4f776e61626c653a207a65726f20616464726573730000000000000000000000604482015290519081900360640190fd5b600080546040516001600160a01b03808716939216917f8be0079c531659141344cd1fd0a4f28419497f9722a3daafe3b4186f6b6457e091a3600080546001600160a01b0385167fffffffffffffffffffffffff00000000000000000000000000000000000000009182161790915560018054909116905561052d565b600180547fffffffffffffffffffffffff0000000000000000000000000000000000000000166001600160a01b0385161790555b505050565b60046020526000908152604090205460ff1681565b60006001600160a01b0385166105a4576040805162461bcd60e51b815260206004820181905260248201527f426f72696e67466163746f72793a204e6f206d6173746572436f6e7472616374604482015290519081900360640190fd5b606085901b8215610632576000858560405180838380828437604051920182900382207f3d602d80600a3d3981f3363d3d373d3d3d363d730000000000000000000000008352601483018890527f5af43d82803e903d91602b57fd5bf3000000000000000000000000000000000060288401529550909350849250603791508390506000f59350505061068e565b6040517f3d602d80600a3d3981f3363d3d373d3d3d363d7300000000000000000000000081528160148201527f5af43d82803e903d91602b57fd5bf3000000000000000000000000000000000060288201526037816000f09250505b6001600160a01b0382811660008181526002602090815260409182902080547fffffffffffffffffffffffff000000000000000000000000000000000000000016948b1694909417909355517f4ddf47d400000000000000000000000000000000000000000000000000000000815260048101928352602481018790529091634ddf47d491349189918991908190604401848480828437600081840152601f19601f82011690508083019250505093505050506000604051808303818588803b15801561075a57600080fd5b505af115801561076e573d6000803e3d6000fd5b5050505050816001600160a01b0316866001600160a01b03167fd62166f3c2149208e51788b1401cc356bf5da1fc6c7886a32e18570f57d88b3b878760405180806020018281038252848482818152602001925080828437600083820152604051601f909101601f19169092018290039550909350505050a350949350505050565b6000467f00000000000000000000000000000000000000000000000000000000000000008114610828576108238161104a565b61084a565b7f00000000000000000000000000000000000000000000000000000000000000005b91505090565b6001546001600160a01b03163381146108b0576040805162461bcd60e51b815260206004820181905260248201527f4f776e61626c653a2063616c6c657220213d2070656e64696e67206f776e6572604482015290519081900360640190fd5b600080546040516001600160a01b03808516939216917f8be0079c531659141344cd1fd0a4f28419497f9722a3daafe3b4186f6b6457e091a3600080546001600160a01b039092167fffffffffffffffffffffffff0000000000000000000000000000000000000000928316179055600180549091169055565b6000546001600160a01b03163314610989576040805162461bcd60e51b815260206004820181905260248201527f4f776e61626c653a2063616c6c6572206973206e6f7420746865206f776e6572604482015290519081900360640190fd5b6001600160a01b0382166109e4576040805162461bcd60e51b815260206004820152601c60248201527f4d6173746572434d67723a2043616e6e6f7420617070726f7665203000000000604482015290519081900360640190fd5b6001600160a01b03821660008181526004602090815260409182902080547fffffffffffffffffffffffffffffffffffffffffffffffffffffffffffffff0016851515908117909155825190815291517f31a1e0eac44b54ac6c2a2efa87e92c83405ffcf33fceef02a7bca695130e26009281900390910190a25050565b60056020526000908152604090205481565b6000546001600160a01b031681565b600360209081526000928352604080842090915290825290205460ff1681565b3360008181526002602052604080822080547fffffffffffffffffffffffff00000000000000000000000000000000000000001684179055517fdfb44ffabf0d3a8f650d3ce43eff98f6d050e7ea1a396d5794f014e7dadabacb9190a2565b6002602052600090815260409020546001600160a01b031681565b6001600160a01b038516610b78576040805162461bcd60e51b815260206004820152601b60248201527f4d6173746572434d67723a206d617374657243206e6f74207365740000000000604482015290519081900360640190fd5b81158015610b84575080155b8015610b91575060ff8316155b15610cd2576001600160a01b0386163314610bf3576040805162461bcd60e51b815260206004820152601b60248201527f4d6173746572434d67723a2075736572206e6f742073656e6465720000000000604482015290519081900360640190fd5b6001600160a01b038681166000908152600260205260409020541615610c60576040805162461bcd60e51b815260206004820152601960248201527f4d6173746572434d67723a207573657220697320636c6f6e6500000000000000604482015290519081900360640190fd5b6001600160a01b03851660009081526004602052604090205460ff16610ccd576040805162461bcd60e51b815260206004820152601b60248201527f4d6173746572434d67723a206e6f742077686974656c69737465640000000000604482015290519081900360640190fd5b610fac565b6001600160a01b038616610d2d576040805162461bcd60e51b815260206004820152601c60248201527f4d6173746572434d67723a20557365722063616e6e6f74206265203000000000604482015290519081900360640190fd5b60006040518060400160405280600281526020017f1901000000000000000000000000000000000000000000000000000000000000815250610d6d6107f0565b7f1962bc9f5484cb7a998701b81090e966ee1fce5771af884cceee7c081b14ade287610db9577fb426802f1f7dc850a7b6b38805edea2442f3992878a9ab985abfe8091d95d0b1610ddb565b7f422ac5323fe049241dee67716229a1cc1bc7b313b23dfe3ef6d42ab177a3b2845b6001600160a01b03808c16600081815260056020908152604091829020805460018101909155825180830197909752868301959095526060860192909252918c1660808501528a151560a085015260c0808501939093528151808503909301835260e084019091528151918101919091208451909261010001918291908601908083835b60208310610e7e5780518252601f199092019160209182019101610e5f565b51815160209384036101000a7fffffffffffffffffffffffffffffffffffffffffffffffffffffffffffffffff0180199092169116179052920194855250838101929092525060408051808403830181528184018083528151918401919091206000918290526060850180845281905260ff8a16608086015260a0850189905260c085018890529151919550935060019260e08082019392601f1981019281900390910190855afa158015610f37573d6000803e3d6000fd5b505050602060405103519050876001600160a01b0316816001600160a01b031614610fa9576040805162461bcd60e51b815260206004820152601d60248201527f4d6173746572434d67723a20496e76616c6964205369676e6174757265000000604482015290519081900360640190fd5b50505b6001600160a01b038581166000818152600360209081526040808320948b168084529482529182902080547fffffffffffffffffffffffffffffffffffffffffffffffffffffffffffffff0016891515908117909155825190815291517f5f6ebb64ba012a851c6f014e6cad458ddf213d1512049b31cd06365c2b0592579281900390910190a3505050505050565b6001546001600160a01b031681565b604080517f8cad95687ba82c2ce50e74f7b754645e5117c3a5bec8151c0726d5857980a8666020808301919091527fd7df266aff736d415a9dc14b4158201d612e70d75b9c7f4e375ccfd20aa5166f828401526060820193909352306080808301919091528251808303909101815260a090910190915280519101209056fea2646970667358221220e6da34d43ee7d9b7bbc60d653395a78d78f8b115e77765199a8357096c96d30364736f6c634300060c0033",
    "linkReferences": {}
  }
}