{
  "address": "0x4bfAeA431419faA784512a5d74B51cFE5675bF27",
  "abi": [
    {
      "inputs": [
        {
          "internalType": "address",
          "name": "user",
          "type": "address"
        },
        {
          "internalType": "contract ILendingPair[]",
          "name": "pairs",
          "type": "address[]"
        }
      ],
      "name": "getPairs",
      "outputs": [
        {
          "components": [
            {
              "internalType": "contract ILendingPair",
              "name": "pair",
              "type": "address"
            },
            {
              "internalType": "contract IOracle",
              "name": "oracle",
              "type": "address"
            },
            {
              "internalType": "contract IBentoBox",
              "name": "bentoBox",
              "type": "address"
            },
            {
              "internalType": "address",
              "name": "masterContract",
              "type": "address"
            },
            {
              "internalType": "bool",
              "name": "masterContractApproved",
              "type": "bool"
            },
            {
              "internalType": "contract IERC20",
              "name": "tokenAsset",
              "type": "address"
            },
            {
              "internalType": "contract IERC20",
              "name": "tokenCollateral",
              "type": "address"
            },
            {
              "internalType": "uint256",
              "name": "latestExchangeRate",
              "type": "uint256"
            },
            {
              "internalType": "uint256",
              "name": "lastBlockAccrued",
              "type": "uint256"
            },
            {
              "internalType": "uint256",
              "name": "interestRate",
              "type": "uint256"
            },
            {
              "internalType": "uint256",
              "name": "totalCollateralAmount",
              "type": "uint256"
            },
            {
              "internalType": "uint256",
              "name": "totalAssetAmount",
              "type": "uint256"
            },
            {
              "internalType": "uint256",
              "name": "totalBorrowAmount",
              "type": "uint256"
            },
            {
              "internalType": "uint256",
              "name": "totalAssetFraction",
              "type": "uint256"
            },
            {
              "internalType": "uint256",
              "name": "totalBorrowFraction",
              "type": "uint256"
            },
            {
              "internalType": "uint256",
              "name": "interestPerBlock",
              "type": "uint256"
            },
            {
              "internalType": "uint256",
              "name": "feesPendingAmount",
              "type": "uint256"
            },
            {
              "internalType": "uint256",
              "name": "userCollateralAmount",
              "type": "uint256"
            },
            {
              "internalType": "uint256",
              "name": "userAssetFraction",
              "type": "uint256"
            },
            {
              "internalType": "uint256",
              "name": "userAssetAmount",
              "type": "uint256"
            },
            {
              "internalType": "uint256",
              "name": "userBorrowFraction",
              "type": "uint256"
            },
            {
              "internalType": "uint256",
              "name": "userBorrowAmount",
              "type": "uint256"
            },
            {
              "internalType": "uint256",
              "name": "userAssetBalance",
              "type": "uint256"
            },
            {
              "internalType": "uint256",
              "name": "userCollateralBalance",
              "type": "uint256"
            },
            {
              "internalType": "uint256",
              "name": "userAssetAllowance",
              "type": "uint256"
            },
            {
              "internalType": "uint256",
              "name": "userCollateralAllowance",
              "type": "uint256"
            }
          ],
          "internalType": "struct BentoHelper.PairInfo[]",
          "name": "info",
          "type": "tuple[]"
        }
      ],
      "stateMutability": "view",
      "type": "function"
    }
  ],
  "transactionHash": "0x68aa96006e9a2f27666754368659864b501be6480ef4d790285bade9f69fdefa",
  "args": [],
  "solcInputHash": "49dd10c21142f3de1d4cf3403c661c8c",
  "bytecode": "0x608060405234801561001057600080fd5b50611355806100206000396000f3fe608060405234801561001057600080fd5b506004361061002b5760003560e01c806318b0ca1614610030575b600080fd5b61004361003e366004610f58565b610059565b6040516100509190611148565b60405180910390f35b60608167ffffffffffffffff8111801561007257600080fd5b506040519080825280602002602001820160405280156100ac57816020015b610099610e5d565b8152602001906001900390816100915790505b50905060005b82811015610e555760008484838181106100c857fe5b90506020020160208101906100dd919061104e565b9050808383815181106100ec57fe5b6020026020010151600001906001600160a01b031690816001600160a01b031681525050806001600160a01b0316637dc0d1d06040518163ffffffff1660e01b815260040160206040518083038186803b15801561014957600080fd5b505afa15801561015d573d6000803e3d6000fd5b505050506040513d601f19601f820116820180604052508101906101819190611032565b83838151811061018d57fe5b6020026020010151602001906001600160a01b031690816001600160a01b0316815250506000816001600160a01b0316636b2ace876040518163ffffffff1660e01b815260040160206040518083038186803b1580156101ec57600080fd5b505afa158015610200573d6000803e3d6000fd5b505050506040513d601f19601f820116820180604052508101906102249190611032565b90508084848151811061023357fe5b6020026020010151604001906001600160a01b031690816001600160a01b031681525050816001600160a01b031663cd446e226040518163ffffffff1660e01b815260040160206040518083038186803b15801561029057600080fd5b505afa1580156102a4573d6000803e3d6000fd5b505050506040513d601f19601f820116820180604052508101906102c89190611032565b8484815181106102d457fe5b6020026020010151606001906001600160a01b031690816001600160a01b031681525050806001600160a01b03166391e0eab585858151811061031357fe5b602002602001015160600151896040518363ffffffff1660e01b815260040161033d92919061112e565b60206040518083038186803b15801561035557600080fd5b505afa158015610369573d6000803e3d6000fd5b505050506040513d601f19601f8201168201806040525081019061038d9190610fda565b84848151811061039957fe5b602002602001015160800190151590811515815250506000826001600160a01b03166338d52e0f6040518163ffffffff1660e01b815260040160206040518083038186803b1580156103ea57600080fd5b505afa1580156103fe573d6000803e3d6000fd5b505050506040513d601f19601f820116820180604052508101906104229190611032565b90508085858151811061043157fe5b602002602001015160a001906001600160a01b031690816001600160a01b0316815250506000836001600160a01b031663d8dfeb456040518163ffffffff1660e01b815260040160206040518083038186803b15801561049057600080fd5b505afa1580156104a4573d6000803e3d6000fd5b505050506040513d601f19601f820116820180604052508101906104c89190611032565b9050808686815181106104d757fe5b602002602001015160c001906001600160a01b031690816001600160a01b031681525050836001600160a01b031663d98cb9016040518163ffffffff1660e01b8152600401604080518083038186803b15801561053357600080fd5b505afa158015610547573d6000803e3d6000fd5b505050506040513d601f19601f8201168201806040525081019061056b9190611001565b905086868151811061057957fe5b602002602001015160e0018181525050836001600160a01b031663b27c0e746040518163ffffffff1660e01b815260040160606040518083038186803b1580156105c257600080fd5b505afa1580156105d6573d6000803e3d6000fd5b505050506040513d601f19601f820116820180604052508101906105fa91906110bb565b8267ffffffffffffffff1692508167ffffffffffffffff169150806001600160801b0316905088888151811061062c57fe5b60200260200101516101e00189898151811061064457fe5b6020026020010151610100018a8a8151811061065c57fe5b602002602001015161020001838152508381525083815250505050836001600160a01b03166363f31d2c6040518163ffffffff1660e01b815260040160206040518083038186803b1580156106b057600080fd5b505afa1580156106c4573d6000803e3d6000fd5b505050506040513d601f19601f820116820180604052508101906106e891906110a3565b8686815181106106f457fe5b6020026020010151610140018181525050836001600160a01b031663f9557ccb6040518163ffffffff1660e01b8152600401604080518083038186803b15801561073d57600080fd5b505afa158015610751573d6000803e3d6000fd5b505050506040513d601f19601f82011682018060405250810190610775919061106a565b816001600160801b03169150806001600160801b0316905087878151811061079957fe5b6020026020010151610160018888815181106107b157fe5b60200260200101516101a00182815250828152505050836001600160a01b0316638285ef406040518163ffffffff1660e01b8152600401604080518083038186803b1580156107ff57600080fd5b505afa158015610813573d6000803e3d6000fd5b505050506040513d601f19601f82011682018060405250810190610837919061106a565b816001600160801b03169150806001600160801b0316905087878151811061085b57fe5b60200260200101516101800188888151811061087357fe5b60209081029190910101516101c00191909152526040516358e21e5f60e11b81526001600160a01b0385169063b1c43cbe906108b3908c9060040161111a565b60206040518083038186803b1580156108cb57600080fd5b505afa1580156108df573d6000803e3d6000fd5b505050506040513d601f19601f8201168201806040525081019061090391906110a3565b86868151811061090f57fe5b602090810291909101015161022001526040516370a0823160e01b81526001600160a01b038516906370a082319061094b908c9060040161111a565b60206040518083038186803b15801561096357600080fd5b505afa158015610977573d6000803e3d6000fd5b505050506040513d601f19601f8201168201806040525081019061099b91906110a3565b8686815181106109a757fe5b60200260200101516102400181815250508585815181106109c457fe5b60200260200101516101a00151600014610a31578585815181106109e457fe5b60200260200101516101a001518686815181106109fd57fe5b60200260200101516101600151878781518110610a1657fe5b602002602001015161024001510281610a2b57fe5b04610a34565b60005b868681518110610a4057fe5b6020908102919091010151610260015260405163e0d8e70360e01b81526001600160a01b0385169063e0d8e70390610a7c908c9060040161111a565b60206040518083038186803b158015610a9457600080fd5b505afa158015610aa8573d6000803e3d6000fd5b505050506040513d601f19601f82011682018060405250810190610acc91906110a3565b868681518110610ad857fe5b6020026020010151610280018181525050858581518110610af557fe5b60200260200101516101c00151600014610b6257858581518110610b1557fe5b60200260200101516101c00151868681518110610b2e57fe5b60200260200101516101800151878781518110610b4757fe5b602002602001015161028001510281610b5c57fe5b04610b65565b60005b868681518110610b7157fe5b60200260200101516102a0018181525050858581518110610b8e57fe5b602002602001015160a001516001600160a01b03166370a082318a6040518263ffffffff1660e01b8152600401610bc5919061111a565b60206040518083038186803b158015610bdd57600080fd5b505afa158015610bf1573d6000803e3d6000fd5b505050506040513d601f19601f82011682018060405250810190610c1591906110a3565b868681518110610c2157fe5b60200260200101516102c0018181525050858581518110610c3e57fe5b602002602001015160c001516001600160a01b03166370a082318a6040518263ffffffff1660e01b8152600401610c75919061111a565b60206040518083038186803b158015610c8d57600080fd5b505afa158015610ca1573d6000803e3d6000fd5b505050506040513d601f19601f82011682018060405250810190610cc591906110a3565b868681518110610cd157fe5b60200260200101516102e0018181525050858581518110610cee57fe5b602002602001015160a001516001600160a01b031663dd62ed3e8a856040518363ffffffff1660e01b8152600401610d2792919061112e565b60206040518083038186803b158015610d3f57600080fd5b505afa158015610d53573d6000803e3d6000fd5b505050506040513d601f19601f82011682018060405250810190610d7791906110a3565b868681518110610d8357fe5b6020026020010151610300018181525050858581518110610da057fe5b602002602001015160c001516001600160a01b031663dd62ed3e8a856040518363ffffffff1660e01b8152600401610dd992919061112e565b60206040518083038186803b158015610df157600080fd5b505afa158015610e05573d6000803e3d6000fd5b505050506040513d601f19601f82011682018060405250810190610e2991906110a3565b868681518110610e3557fe5b602090810291909101015161032001525050600190920191506100b29050565b509392505050565b60405180610340016040528060006001600160a01b0316815260200160006001600160a01b0316815260200160006001600160a01b0316815260200160006001600160a01b0316815260200160001515815260200160006001600160a01b0316815260200160006001600160a01b03168152602001600081526020016000815260200160008152602001600081526020016000815260200160008152602001600081526020016000815260200160008152602001600081526020016000815260200160008152602001600081526020016000815260200160008152602001600081526020016000815260200160008152602001600081525090565b600080600060408486031215610f6c578283fd5b8335610f77816112dc565b9250602084013567ffffffffffffffff80821115610f93578384fd5b818601915086601f830112610fa6578384fd5b813581811115610fb4578485fd5b8760208083028501011115610fc7578485fd5b6020830194508093505050509250925092565b600060208284031215610feb578081fd5b81518015158114610ffa578182fd5b9392505050565b60008060408385031215611013578182fd5b82518015158114611022578283fd5b6020939093015192949293505050565b600060208284031215611043578081fd5b8151610ffa816112dc565b60006020828403121561105f578081fd5b8135610ffa816112dc565b6000806040838503121561107c578182fd5b8251611087816112f4565b6020840151909250611098816112f4565b809150509250929050565b6000602082840312156110b4578081fd5b5051919050565b6000806000606084860312156110cf578283fd5b83516110da81611309565b60208501519093506110eb81611309565b60408501519092506110fc816112f4565b809150509250925092565b6001600160a01b03169052565b15159052565b6001600160a01b0391909116815260200190565b6001600160a01b0392831681529116602082015260400190565b602080825282518282018190526000919060409081850190868401855b828110156112cf57815161117a858251611107565b8681015161118a88870182611107565b508581015161119b87870182611107565b506060808201516111ae82880182611107565b50506080808201516111c282880182611114565b505060a0808201516111d682880182611107565b505060c0808201516111ea82880182611107565b505060e08181015190860152610100808201519086015261012080820151908601526101408082015190860152610160808201519086015261018080820151908601526101a080820151908601526101c080820151908601526101e08082015190860152610200808201519086015261022080820151908601526102408082015190860152610260808201519086015261028080820151908601526102a080820151908601526102c080820151908601526102e08082015190860152610300808201519086015261032090810151908501526103409093019290850190600101611165565b5091979650505050505050565b6001600160a01b03811681146112f157600080fd5b50565b6001600160801b03811681146112f157600080fd5b67ffffffffffffffff811681146112f157600080fdfea2646970667358221220f4ffee9a5676973113495770e81230641c937b9131073b78759357144737cce464736f6c634300060c0033",
  "devdoc": {
    "kind": "dev",
    "methods": {},
    "version": 1
  },
  "userdoc": {
    "kind": "user",
    "methods": {},
    "version": 1
  },
  "storageLayout": {
    "storage": [],
    "types": null
  }
}