{
  "address": "0xcdC9668Fa0472db801c5bb4a529dc213343d9f03",
  "abi": [
    {
      "inputs": [
        {
          "internalType": "contract IBentoBox",
          "name": "bentoBox_",
          "type": "address"
        },
        {
          "internalType": "contract IUniswapV2Factory",
          "name": "factory_",
          "type": "address"
        }
      ],
      "stateMutability": "nonpayable",
      "type": "constructor"
    },
    {
      "inputs": [],
      "name": "bentoBox",
      "outputs": [
        {
          "internalType": "contract IBentoBox",
          "name": "",
          "type": "address"
        }
      ],
      "stateMutability": "view",
      "type": "function"
    },
    {
      "inputs": [],
      "name": "factory",
      "outputs": [
        {
          "internalType": "contract IUniswapV2Factory",
          "name": "",
          "type": "address"
        }
      ],
      "stateMutability": "view",
      "type": "function"
    },
    {
      "inputs": [
        {
          "internalType": "contract IERC20",
          "name": "from",
          "type": "address"
        },
        {
          "internalType": "contract IERC20",
          "name": "to",
          "type": "address"
        },
        {
          "internalType": "uint256",
          "name": "amountFrom",
          "type": "uint256"
        },
        {
          "internalType": "uint256",
          "name": "amountToMin",
          "type": "uint256"
        }
      ],
      "name": "swap",
      "outputs": [
        {
          "internalType": "uint256",
          "name": "",
          "type": "uint256"
        }
      ],
      "stateMutability": "nonpayable",
      "type": "function"
    },
    {
      "inputs": [
        {
          "internalType": "contract IERC20",
          "name": "from",
          "type": "address"
        },
        {
          "internalType": "contract IERC20",
          "name": "to",
          "type": "address"
        },
        {
          "internalType": "uint256",
          "name": "amountFromMax",
          "type": "uint256"
        },
        {
          "internalType": "uint256",
          "name": "exactAmountTo",
          "type": "uint256"
        },
        {
          "internalType": "address",
          "name": "refundTo",
          "type": "address"
        }
      ],
      "name": "swapExact",
      "outputs": [
        {
          "internalType": "uint256",
          "name": "",
          "type": "uint256"
        }
      ],
      "stateMutability": "nonpayable",
      "type": "function"
    }
  ],
  "transactionHash": "0xa91a7101d9d03cd568b279b28117e487a57d7e94bac317c02ee638cac2ba25cb",
  "args": [
    "0x5FC8d32690cc91D4c39d9d3abcBD16989F875707",
    "0x7364A0eA6C896aE192da52b87dD0DF35B436D851"
  ],
  "solcInputHash": "49dd10c21142f3de1d4cf3403c661c8c",
  "bytecode": "0x608060405234801561001057600080fd5b50604051610e0b380380610e0b8339818101604052604081101561003357600080fd5b508051602090910151600080546001600160a01b039384166001600160a01b03199182161790915560018054939092169216919091179055610d918061007a6000396000f3fe608060405234801561001057600080fd5b506004361061004c5760003560e01c8063237cdfc7146100515780636b2ace87146100a7578063c45a0155146100cb578063fe029156146100d3575b600080fd5b610095600480360360a081101561006757600080fd5b506001600160a01b03813581169160208101358216916040820135916060810135916080909101351661010f565b60408051918252519081900360200190f35b6100af6106d3565b604080516001600160a01b039092168252519081900360200190f35b6100af6106e2565b610095600480360360808110156100e957600080fd5b506001600160a01b038135811691602081013590911690604081013590606001356106f1565b6001546040805163e6a4390560e01b81526001600160a01b038881166004830152878116602483015291516000938493169163e6a43905916044808301926020929190829003018186803b15801561016657600080fd5b505afa15801561017a573d6000803e3d6000fd5b505050506040513d602081101561019057600080fd5b505160408051630240bc6b60e21b8152905191925060009182916001600160a01b03851691630902f1ac91600480820192606092909190829003018186803b1580156101db57600080fd5b505afa1580156101ef573d6000803e3d6000fd5b505050506040513d606081101561020557600080fd5b50805160209182015160408051630dfe168160e01b815290516dffffffffffffffffffffffffffff93841696509290911693506000926001600160a01b03808e169390881692630dfe1681926004808301939192829003018186803b15801561026d57600080fd5b505afa158015610281573d6000803e3d6000fd5b505050506040513d602081101561029757600080fd5b50516001600160a01b0316141561046a576102b3878484610b9d565b90508781111561030a576040805162461bcd60e51b815260206004820152601c60248201527f537573686953776170537761707065723a206e6f7420656e6f75676800000000604482015290519081900360640190fd5b6000805460408051636ce5768960e11b81526001600160a01b038e811660048301528881166024830152604482018690529151919092169263d9caed12926064808201939182900301818387803b15801561036457600080fd5b505af1158015610378573d6000803e3d6000fd5b50506000805460408051838152602081019182905263022c0d9f60e01b825260248101848152604482018e90526001600160a01b0393841660648301819052608060848401908152835160a48501819052958d16985063022c0d9f97508f959194909160c4850191908083838b5b838110156103fe5781810151838201526020016103e6565b50505050905090810190601f16801561042b5780820380516001836020036101000a031916815260200191505b5095505050505050600060405180830381600087803b15801561044d57600080fd5b505af1158015610461573d6000803e3d6000fd5b50505050610629565b610475878385610b9d565b9050878111156104cc576040805162461bcd60e51b815260206004820152601c60248201527f537573686953776170537761707065723a206e6f7420656e6f75676800000000604482015290519081900360640190fd5b6000805460408051636ce5768960e11b81526001600160a01b038e811660048301528881166024830152604482018690529151919092169263d9caed12926064808201939182900301818387803b15801561052657600080fd5b505af115801561053a573d6000803e3d6000fd5b50506000805460408051838152602081019182905263022c0d9f60e01b8252602481018d8152604482018590526001600160a01b0393841660648301819052608060848401908152835160a48501819052958d16985063022c0d9f97508f96959194909160c4850191908083838a5b838110156105c15781810151838201526020016105a9565b50505050905090810190601f1680156105ee5780820380516001836020036101000a031916815260200191505b5095505050505050600060405180830381600087803b15801561061057600080fd5b505af1158015610624573d6000803e3d6000fd5b505050505b6000546001600160a01b03166315dacbea8b30896106478d87610beb565b6040518563ffffffff1660e01b815260040180856001600160a01b03168152602001846001600160a01b03168152602001836001600160a01b03168152602001828152602001945050505050600060405180830381600087803b1580156106ad57600080fd5b505af11580156106c1573d6000803e3d6000fd5b50929c9b505050505050505050505050565b6000546001600160a01b031681565b6001546001600160a01b031681565b6001546040805163e6a4390560e01b81526001600160a01b038781166004830152868116602483015291516000938493169163e6a43905916044808301926020929190829003018186803b15801561074857600080fd5b505afa15801561075c573d6000803e3d6000fd5b505050506040513d602081101561077257600080fd5b50516000805460408051636ce5768960e11b81526001600160a01b038b811660048301528086166024830152604482018a9052915194955091169263d9caed129260648084019391929182900301818387803b1580156107d157600080fd5b505af11580156107e5573d6000803e3d6000fd5b50505050600080826001600160a01b0316630902f1ac6040518163ffffffff1660e01b815260040160606040518083038186803b15801561082557600080fd5b505afa158015610839573d6000803e3d6000fd5b505050506040513d606081101561084f57600080fd5b50805160209182015160408051630dfe168160e01b815290516dffffffffffffffffffffffffffff93841696509290911693506000926001600160a01b03808d169390881692630dfe1681926004808301939192829003018186803b1580156108b757600080fd5b505afa1580156108cb573d6000803e3d6000fd5b505050506040513d60208110156108e157600080fd5b50516001600160a01b03161415610a44576108fd878484610c49565b905085811015610954576040805162461bcd60e51b815260206004820152601c60248201527f537573686953776170537761707065723a206e6f7420656e6f75676800000000604482015290519081900360640190fd5b6000805460408051838152602081019182905263022c0d9f60e01b825260248101848152604482018690526001600160a01b0393841660648301819052608060848401908152835160a48501819052958b169663022c0d9f96909589959394929160c4850191908083838b5b838110156109d85781810151838201526020016109c0565b50505050905090810190601f168015610a055780820380516001836020036101000a031916815260200191505b5095505050505050600060405180830381600087803b158015610a2757600080fd5b505af1158015610a3b573d6000803e3d6000fd5b50505050610b91565b610a4f878385610c49565b905085811015610aa6576040805162461bcd60e51b815260206004820152601c60248201527f537573686953776170537761707065723a206e6f7420656e6f75676800000000604482015290519081900360640190fd5b6000805460408051838152602081019182905263022c0d9f60e01b825260248101858152604482018590526001600160a01b0393841660648301819052608060848401908152835160a48501819052958b169663022c0d9f96899691959394929160c48501918083838a5b83811015610b29578181015183820152602001610b11565b50505050905090810190601f168015610b565780820380516001836020036101000a031916815260200191505b5095505050505050600060405180830381600087803b158015610b7857600080fd5b505af1158015610b8c573d6000803e3d6000fd5b505050505b98975050505050505050565b600080610bb66103e8610bb08688610c97565b90610c97565b90506000610bca6103e5610bb08689610beb565b9050610be16001828481610bda57fe5b0490610d03565b9695505050505050565b80820382811115610c43576040805162461bcd60e51b815260206004820152601560248201527f426f72696e674d6174683a20556e646572666c6f770000000000000000000000604482015290519081900360640190fd5b92915050565b600080610c58856103e5610c97565b90506000610c668285610c97565b90506000610c8083610c7a886103e8610c97565b90610d03565b9050808281610c8b57fe5b04979650505050505050565b6000811580610cb257505080820282828281610caf57fe5b04145b610c43576040805162461bcd60e51b815260206004820152601860248201527f426f72696e674d6174683a204d756c204f766572666c6f770000000000000000604482015290519081900360640190fd5b81810181811015610c43576040805162461bcd60e51b815260206004820152601860248201527f426f72696e674d6174683a20416464204f766572666c6f770000000000000000604482015290519081900360640190fdfea26469706673582212208431805580115a4218a2702751164c06e7c68831d0d9db9bd71ce3eec2311fe064736f6c634300060c0033",
  "devdoc": {
    "kind": "dev",
    "methods": {},
    "version": 1
  },
  "userdoc": {
    "kind": "user",
    "methods": {},
    "version": 1
  },
  "storageLayout": {
    "storage": [
      {
        "astId": 9788,
        "contract": "contracts/swappers/SushiSwapSwapper.sol:SushiSwapSwapper",
        "label": "bentoBox",
        "offset": 0,
        "slot": "0",
        "type": "t_contract(IBentoBox)6933"
      },
      {
        "astId": 9790,
        "contract": "contracts/swappers/SushiSwapSwapper.sol:SushiSwapSwapper",
        "label": "factory",
        "offset": 0,
        "slot": "1",
        "type": "t_contract(IUniswapV2Factory)3045"
      }
    ],
    "types": {
      "t_contract(IBentoBox)6933": {
        "encoding": "inplace",
        "label": "contract IBentoBox",
        "numberOfBytes": "20"
      },
      "t_contract(IUniswapV2Factory)3045": {
        "encoding": "inplace",
        "label": "contract IUniswapV2Factory",
        "numberOfBytes": "20"
      }
    }
  }
}