{
  "abi": [
    {
      "inputs": [
        {
          "internalType": "contract IERC20",
          "name": "wethToken_",
          "type": "address"
        }
      ],
      "stateMutability": "nonpayable",
      "type": "constructor"
    },
    {
      "anonymous": false,
      "inputs": [
        {
          "indexed": true,
          "internalType": "address",
          "name": "masterContract",
          "type": "address"
        },
        {
          "indexed": false,
          "internalType": "bytes",
          "name": "data",
          "type": "bytes"
        },
        {
          "indexed": true,
          "internalType": "address",
          "name": "cloneAddress",
          "type": "address"
        }
      ],
      "name": "LogDeploy",
      "type": "event"
    },
    {
      "anonymous": false,
      "inputs": [
        {
          "indexed": true,
          "internalType": "contract IERC20",
          "name": "token",
          "type": "address"
        },
        {
          "indexed": true,
          "internalType": "address",
          "name": "from",
          "type": "address"
        },
        {
          "indexed": true,
          "internalType": "address",
          "name": "to",
          "type": "address"
        },
        {
          "indexed": false,
          "internalType": "uint256",
          "name": "amount",
          "type": "uint256"
        },
        {
          "indexed": false,
          "internalType": "uint256",
          "name": "share",
          "type": "uint256"
        }
      ],
      "name": "LogDeposit",
      "type": "event"
    },
    {
      "anonymous": false,
      "inputs": [
        {
          "indexed": true,
          "internalType": "address",
          "name": "borrower",
          "type": "address"
        },
        {
          "indexed": true,
          "internalType": "contract IERC20",
          "name": "token",
          "type": "address"
        },
        {
          "indexed": false,
          "internalType": "uint256",
          "name": "amount",
          "type": "uint256"
        },
        {
          "indexed": false,
          "internalType": "uint256",
          "name": "feeAmount",
          "type": "uint256"
        },
        {
          "indexed": true,
          "internalType": "address",
          "name": "receiver",
          "type": "address"
        }
      ],
      "name": "LogFlashLoan",
      "type": "event"
    },
    {
      "anonymous": false,
      "inputs": [
        {
          "indexed": true,
          "internalType": "address",
          "name": "protocol",
          "type": "address"
        }
      ],
      "name": "LogRegisterProtocol",
      "type": "event"
    },
    {
      "anonymous": false,
      "inputs": [
        {
          "indexed": true,
          "internalType": "address",
          "name": "masterContract",
          "type": "address"
        },
        {
          "indexed": true,
          "internalType": "address",
          "name": "user",
          "type": "address"
        },
        {
          "indexed": false,
          "internalType": "bool",
          "name": "approved",
          "type": "bool"
        }
      ],
      "name": "LogSetMasterContractApproval",
      "type": "event"
    },
    {
      "anonymous": false,
      "inputs": [
        {
          "indexed": true,
          "internalType": "contract IERC20",
          "name": "token",
          "type": "address"
        },
        {
          "indexed": false,
          "internalType": "uint256",
          "name": "amount",
          "type": "uint256"
        }
      ],
      "name": "LogStrategyDivest",
      "type": "event"
    },
    {
      "anonymous": false,
      "inputs": [
        {
          "indexed": true,
          "internalType": "contract IERC20",
          "name": "token",
          "type": "address"
        },
        {
          "indexed": false,
          "internalType": "uint256",
          "name": "amount",
          "type": "uint256"
        }
      ],
      "name": "LogStrategyInvest",
      "type": "event"
    },
    {
      "anonymous": false,
      "inputs": [
        {
          "indexed": true,
          "internalType": "contract IERC20",
          "name": "token",
          "type": "address"
        },
        {
          "indexed": false,
          "internalType": "uint256",
          "name": "amount",
          "type": "uint256"
        }
      ],
      "name": "LogStrategyLoss",
      "type": "event"
    },
    {
      "anonymous": false,
      "inputs": [
        {
          "indexed": true,
          "internalType": "contract IERC20",
          "name": "token",
          "type": "address"
        },
        {
          "indexed": false,
          "internalType": "uint256",
          "name": "amount",
          "type": "uint256"
        }
      ],
      "name": "LogStrategyProfit",
      "type": "event"
    },
    {
      "anonymous": false,
      "inputs": [
        {
          "indexed": true,
          "internalType": "contract IERC20",
          "name": "token",
          "type": "address"
        },
        {
          "indexed": true,
          "internalType": "contract IStrategy",
          "name": "strategy",
          "type": "address"
        }
      ],
      "name": "LogStrategyQueued",
      "type": "event"
    },
    {
      "anonymous": false,
      "inputs": [
        {
          "indexed": true,
          "internalType": "contract IERC20",
          "name": "token",
          "type": "address"
        },
        {
          "indexed": true,
          "internalType": "contract IStrategy",
          "name": "strategy",
          "type": "address"
        }
      ],
      "name": "LogStrategySet",
      "type": "event"
    },
    {
      "anonymous": false,
      "inputs": [
        {
          "indexed": true,
          "internalType": "contract IERC20",
          "name": "token",
          "type": "address"
        },
        {
          "indexed": false,
          "internalType": "uint256",
          "name": "targetPercentage",
          "type": "uint256"
        }
      ],
      "name": "LogStrategyTargetPercentage",
      "type": "event"
    },
    {
      "anonymous": false,
      "inputs": [
        {
          "indexed": true,
          "internalType": "contract IERC20",
          "name": "token",
          "type": "address"
        },
        {
          "indexed": true,
          "internalType": "address",
          "name": "from",
          "type": "address"
        },
        {
          "indexed": true,
          "internalType": "address",
          "name": "to",
          "type": "address"
        },
        {
          "indexed": false,
          "internalType": "uint256",
          "name": "share",
          "type": "uint256"
        }
      ],
      "name": "LogTransfer",
      "type": "event"
    },
    {
      "anonymous": false,
      "inputs": [
        {
          "indexed": true,
          "internalType": "address",
          "name": "masterContract",
          "type": "address"
        },
        {
          "indexed": false,
          "internalType": "bool",
          "name": "approved",
          "type": "bool"
        }
      ],
      "name": "LogWhiteListMasterContract",
      "type": "event"
    },
    {
      "anonymous": false,
      "inputs": [
        {
          "indexed": true,
          "internalType": "contract IERC20",
          "name": "token",
          "type": "address"
        },
        {
          "indexed": true,
          "internalType": "address",
          "name": "from",
          "type": "address"
        },
        {
          "indexed": true,
          "internalType": "address",
          "name": "to",
          "type": "address"
        },
        {
          "indexed": false,
          "internalType": "uint256",
          "name": "amount",
          "type": "uint256"
        },
        {
          "indexed": false,
          "internalType": "uint256",
          "name": "share",
          "type": "uint256"
        }
      ],
      "name": "LogWithdraw",
      "type": "event"
    },
    {
      "anonymous": false,
      "inputs": [
        {
          "indexed": true,
          "internalType": "address",
          "name": "previousOwner",
          "type": "address"
        },
        {
          "indexed": true,
          "internalType": "address",
          "name": "newOwner",
          "type": "address"
        }
      ],
      "name": "OwnershipTransferred",
      "type": "event"
    },
    {
      "inputs": [],
      "name": "DOMAIN_SEPARATOR",
      "outputs": [
        {
          "internalType": "bytes32",
          "name": "",
          "type": "bytes32"
        }
      ],
      "stateMutability": "view",
      "type": "function"
    },
    {
      "inputs": [
        {
          "internalType": "contract IERC20",
          "name": "",
          "type": "address"
        },
        {
          "internalType": "address",
          "name": "",
          "type": "address"
        }
      ],
      "name": "balanceOf",
      "outputs": [
        {
          "internalType": "uint256",
          "name": "",
          "type": "uint256"
        }
      ],
      "stateMutability": "view",
      "type": "function"
    },
    {
      "inputs": [
        {
          "internalType": "bytes[]",
          "name": "calls",
          "type": "bytes[]"
        },
        {
          "internalType": "bool",
          "name": "revertOnFail",
          "type": "bool"
        }
      ],
      "name": "batch",
      "outputs": [],
      "stateMutability": "payable",
      "type": "function"
    },
    {
      "inputs": [
        {
          "internalType": "contract IBatchFlashBorrower",
          "name": "borrower",
          "type": "address"
        },
        {
          "internalType": "address[]",
          "name": "receivers",
          "type": "address[]"
        },
        {
          "internalType": "contract IERC20[]",
          "name": "tokens",
          "type": "address[]"
        },
        {
          "internalType": "uint256[]",
          "name": "amounts",
          "type": "uint256[]"
        },
        {
          "internalType": "bytes",
          "name": "data",
          "type": "bytes"
        }
      ],
      "name": "batchFlashLoan",
      "outputs": [],
      "stateMutability": "nonpayable",
      "type": "function"
    },
    {
      "inputs": [],
      "name": "claimOwnership",
      "outputs": [],
      "stateMutability": "nonpayable",
      "type": "function"
    },
    {
      "inputs": [
        {
          "internalType": "address",
          "name": "masterContract",
          "type": "address"
        },
        {
          "internalType": "bytes",
          "name": "data",
          "type": "bytes"
        },
        {
          "internalType": "bool",
          "name": "useCreate2",
          "type": "bool"
        }
      ],
      "name": "deploy",
      "outputs": [
        {
          "internalType": "address",
          "name": "cloneAddress",
          "type": "address"
        }
      ],
      "stateMutability": "payable",
      "type": "function"
    },
    {
      "inputs": [
        {
          "internalType": "contract IERC20",
          "name": "token_",
          "type": "address"
        },
        {
          "internalType": "address",
          "name": "from",
          "type": "address"
        },
        {
          "internalType": "address",
          "name": "to",
          "type": "address"
        },
        {
          "internalType": "uint256",
          "name": "amount",
          "type": "uint256"
        },
        {
          "internalType": "uint256",
          "name": "share",
          "type": "uint256"
        }
      ],
      "name": "deposit",
      "outputs": [
        {
          "internalType": "uint256",
          "name": "amountOut",
          "type": "uint256"
        },
        {
          "internalType": "uint256",
          "name": "shareOut",
          "type": "uint256"
        }
      ],
      "stateMutability": "payable",
      "type": "function"
    },
    {
      "inputs": [
        {
          "internalType": "contract IFlashBorrower",
          "name": "borrower",
          "type": "address"
        },
        {
          "internalType": "address",
          "name": "receiver",
          "type": "address"
        },
        {
          "internalType": "contract IERC20",
          "name": "token",
          "type": "address"
        },
        {
          "internalType": "uint256",
          "name": "amount",
          "type": "uint256"
        },
        {
          "internalType": "bytes",
          "name": "data",
          "type": "bytes"
        }
      ],
      "name": "flashLoan",
      "outputs": [],
      "stateMutability": "nonpayable",
      "type": "function"
    },
    {
      "inputs": [
        {
          "internalType": "contract IERC20",
          "name": "token",
          "type": "address"
        },
        {
          "internalType": "bool",
          "name": "balance",
          "type": "bool"
        },
        {
          "internalType": "uint256",
          "name": "maxChangeAmount",
          "type": "uint256"
        }
      ],
      "name": "harvest",
      "outputs": [],
      "stateMutability": "nonpayable",
      "type": "function"
    },
    {
      "inputs": [
        {
          "internalType": "address",
          "name": "",
          "type": "address"
        },
        {
          "internalType": "address",
          "name": "",
          "type": "address"
        }
      ],
      "name": "masterContractApproved",
      "outputs": [
        {
          "internalType": "bool",
          "name": "",
          "type": "bool"
        }
      ],
      "stateMutability": "view",
      "type": "function"
    },
    {
      "inputs": [
        {
          "internalType": "address",
          "name": "",
          "type": "address"
        }
      ],
      "name": "masterContractOf",
      "outputs": [
        {
          "internalType": "address",
          "name": "",
          "type": "address"
        }
      ],
      "stateMutability": "view",
      "type": "function"
    },
    {
      "inputs": [
        {
          "internalType": "address",
          "name": "",
          "type": "address"
        }
      ],
      "name": "nonces",
      "outputs": [
        {
          "internalType": "uint256",
          "name": "",
          "type": "uint256"
        }
      ],
      "stateMutability": "view",
      "type": "function"
    },
    {
      "inputs": [],
      "name": "owner",
      "outputs": [
        {
          "internalType": "address",
          "name": "",
          "type": "address"
        }
      ],
      "stateMutability": "view",
      "type": "function"
    },
    {
      "inputs": [],
      "name": "pendingOwner",
      "outputs": [
        {
          "internalType": "address",
          "name": "",
          "type": "address"
        }
      ],
      "stateMutability": "view",
      "type": "function"
    },
    {
      "inputs": [
        {
          "internalType": "contract IERC20",
          "name": "",
          "type": "address"
        }
      ],
      "name": "pendingStrategy",
      "outputs": [
        {
          "internalType": "contract IStrategy",
          "name": "",
          "type": "address"
        }
      ],
      "stateMutability": "view",
      "type": "function"
    },
    {
      "inputs": [
        {
          "internalType": "contract IERC20",
          "name": "token",
          "type": "address"
        },
        {
          "internalType": "address",
          "name": "from",
          "type": "address"
        },
        {
          "internalType": "address",
          "name": "to",
          "type": "address"
        },
        {
          "internalType": "uint256",
          "name": "amount",
          "type": "uint256"
        },
        {
          "internalType": "uint256",
          "name": "deadline",
          "type": "uint256"
        },
        {
          "internalType": "uint8",
          "name": "v",
          "type": "uint8"
        },
        {
          "internalType": "bytes32",
          "name": "r",
          "type": "bytes32"
        },
        {
          "internalType": "bytes32",
          "name": "s",
          "type": "bytes32"
        }
      ],
      "name": "permitToken",
      "outputs": [],
      "stateMutability": "nonpayable",
      "type": "function"
    },
    {
      "inputs": [],
      "name": "registerProtocol",
      "outputs": [],
      "stateMutability": "nonpayable",
      "type": "function"
    },
    {
      "inputs": [
        {
          "internalType": "address",
          "name": "user",
          "type": "address"
        },
        {
          "internalType": "address",
          "name": "masterContract",
          "type": "address"
        },
        {
          "internalType": "bool",
          "name": "approved",
          "type": "bool"
        },
        {
          "internalType": "uint8",
          "name": "v",
          "type": "uint8"
        },
        {
          "internalType": "bytes32",
          "name": "r",
          "type": "bytes32"
        },
        {
          "internalType": "bytes32",
          "name": "s",
          "type": "bytes32"
        }
      ],
      "name": "setMasterContractApproval",
      "outputs": [],
      "stateMutability": "nonpayable",
      "type": "function"
    },
    {
      "inputs": [
        {
          "internalType": "contract IERC20",
          "name": "token",
          "type": "address"
        },
        {
          "internalType": "contract IStrategy",
          "name": "newStrategy",
          "type": "address"
        }
      ],
      "name": "setStrategy",
      "outputs": [],
      "stateMutability": "nonpayable",
      "type": "function"
    },
    {
      "inputs": [
        {
          "internalType": "contract IERC20",
          "name": "token",
          "type": "address"
        },
        {
          "internalType": "uint64",
          "name": "targetPercentage_",
          "type": "uint64"
        }
      ],
      "name": "setStrategyTargetPercentage",
      "outputs": [],
      "stateMutability": "nonpayable",
      "type": "function"
    },
    {
      "inputs": [
        {
          "internalType": "contract IERC20",
          "name": "",
          "type": "address"
        }
      ],
      "name": "strategy",
      "outputs": [
        {
          "internalType": "contract IStrategy",
          "name": "",
          "type": "address"
        }
      ],
      "stateMutability": "view",
      "type": "function"
    },
    {
      "inputs": [
        {
          "internalType": "contract IERC20",
          "name": "",
          "type": "address"
        }
      ],
      "name": "strategyData",
      "outputs": [
        {
          "internalType": "uint64",
          "name": "strategyStartDate",
          "type": "uint64"
        },
        {
          "internalType": "uint64",
          "name": "targetPercentage",
          "type": "uint64"
        },
        {
          "internalType": "uint128",
          "name": "balance",
          "type": "uint128"
        }
      ],
      "stateMutability": "view",
      "type": "function"
    },
    {
      "inputs": [
        {
          "internalType": "contract IERC20",
          "name": "token",
          "type": "address"
        },
        {
          "internalType": "uint256",
          "name": "share",
          "type": "uint256"
        },
        {
          "internalType": "bool",
          "name": "roundUp",
          "type": "bool"
        }
      ],
      "name": "toAmount",
      "outputs": [
        {
          "internalType": "uint256",
          "name": "amount",
          "type": "uint256"
        }
      ],
      "stateMutability": "view",
      "type": "function"
    },
    {
      "inputs": [
        {
          "internalType": "contract IERC20",
          "name": "token",
          "type": "address"
        },
        {
          "internalType": "uint256",
          "name": "amount",
          "type": "uint256"
        },
        {
          "internalType": "bool",
          "name": "roundUp",
          "type": "bool"
        }
      ],
      "name": "toShare",
      "outputs": [
        {
          "internalType": "uint256",
          "name": "share",
          "type": "uint256"
        }
      ],
      "stateMutability": "view",
      "type": "function"
    },
    {
      "inputs": [
        {
          "internalType": "contract IERC20",
          "name": "",
          "type": "address"
        }
      ],
      "name": "totals",
      "outputs": [
        {
          "internalType": "uint128",
          "name": "elastic",
          "type": "uint128"
        },
        {
          "internalType": "uint128",
          "name": "base",
          "type": "uint128"
        }
      ],
      "stateMutability": "view",
      "type": "function"
    },
    {
      "inputs": [
        {
          "internalType": "contract IERC20",
          "name": "token",
          "type": "address"
        },
        {
          "internalType": "address",
          "name": "from",
          "type": "address"
        },
        {
          "internalType": "address",
          "name": "to",
          "type": "address"
        },
        {
          "internalType": "uint256",
          "name": "share",
          "type": "uint256"
        }
      ],
      "name": "transfer",
      "outputs": [],
      "stateMutability": "nonpayable",
      "type": "function"
    },
    {
      "inputs": [
        {
          "internalType": "contract IERC20",
          "name": "token",
          "type": "address"
        },
        {
          "internalType": "address",
          "name": "from",
          "type": "address"
        },
        {
          "internalType": "address[]",
          "name": "tos",
          "type": "address[]"
        },
        {
          "internalType": "uint256[]",
          "name": "shares",
          "type": "uint256[]"
        }
      ],
      "name": "transferMultiple",
      "outputs": [],
      "stateMutability": "nonpayable",
      "type": "function"
    },
    {
      "inputs": [
        {
          "internalType": "address",
          "name": "newOwner",
          "type": "address"
        },
        {
          "internalType": "bool",
          "name": "direct",
          "type": "bool"
        },
        {
          "internalType": "bool",
          "name": "renounce",
          "type": "bool"
        }
      ],
      "name": "transferOwnership",
      "outputs": [],
      "stateMutability": "nonpayable",
      "type": "function"
    },
    {
      "inputs": [
        {
          "internalType": "address",
          "name": "masterContract",
          "type": "address"
        },
        {
          "internalType": "bool",
          "name": "approved",
          "type": "bool"
        }
      ],
      "name": "whitelistMasterContract",
      "outputs": [],
      "stateMutability": "nonpayable",
      "type": "function"
    },
    {
      "inputs": [
        {
          "internalType": "address",
          "name": "",
          "type": "address"
        }
      ],
      "name": "whitelistedMasterContracts",
      "outputs": [
        {
          "internalType": "bool",
          "name": "",
          "type": "bool"
        }
      ],
      "stateMutability": "view",
      "type": "function"
    },
    {
      "inputs": [
        {
          "internalType": "contract IERC20",
          "name": "token_",
          "type": "address"
        },
        {
          "internalType": "address",
          "name": "from",
          "type": "address"
        },
        {
          "internalType": "address",
          "name": "to",
          "type": "address"
        },
        {
          "internalType": "uint256",
          "name": "amount",
          "type": "uint256"
        },
        {
          "internalType": "uint256",
          "name": "share",
          "type": "uint256"
        }
      ],
      "name": "withdraw",
      "outputs": [
        {
          "internalType": "uint256",
          "name": "amountOut",
          "type": "uint256"
        },
        {
          "internalType": "uint256",
          "name": "shareOut",
          "type": "uint256"
        }
      ],
      "stateMutability": "nonpayable",
      "type": "function"
    },
    {
      "stateMutability": "payable",
      "type": "receive"
    }
  ],
  "bytecode": {
    "object": "0x60e06040523480156200001157600080fd5b50604051620049b6380380620049b6833981016040819052620000349162000116565b600080546001600160a01b0319163390811782556040519091907f8be0079c531659141344cd1fd0a4f28419497f9722a3daafe3b4186f6b6457e0908290a34660a081905262000084816200009e565b6080525060601b6001600160601b03191660c0526200016a565b60007f8cad95687ba82c2ce50e74f7b754645e5117c3a5bec8151c0726d5857980a8667fd7df266aff736d415a9dc14b4158201d612e70d75b9c7f4e375ccfd20aa5166f8330604051602001620000f9949392919062000146565b604051602081830303815290604052805190602001209050919050565b60006020828403121562000128578081fd5b81516001600160a01b03811681146200013f578182fd5b9392505050565b938452602084019290925260408301526001600160a01b0316606082015260800190565b60805160a05160c05160601c61480d620001a9600039806106b7528061098d528061209a528061229d52508061108a5250806110bf525061480d6000f3fe6080604052600436106101dc5760003560e01c80637c516e9411610102578063d2423b5111610095578063f1676d3711610064578063f1676d3714610547578063f18d03cc14610567578063f483b3da14610587578063f7888aec146105a7576101e3565b8063d2423b51146104d0578063da5139ca146104e3578063df23b45b14610503578063e30c397814610532576101e3565b806397da6d30116100d157806397da6d301461045b578063aee4d1b21461047b578063bafe4f1414610490578063c0a47c93146104b0576101e3565b80637c516e94146103e65780637ecebe00146104065780638da5cb5b1461042657806391e0eab51461043b576101e3565b80633e2a9d4e1161017a5780635662311811610149578063566231181461036657806366c6bb0b1461038657806372cb5d97146103a6578063733a9d7c146103c6576101e3565b80633e2a9d4e146102e35780634e71e0c8146103035780634ffe34db146103185780635108a55814610346576101e3565b806312a90c8a116101b657806312a90c8a146102545780631f54245b14610281578063228bfd9f146102a15780633644e515146102c1576101e3565b806302b9446c146101e8578063078dfbe7146102125780630fca884314610234576101e3565b366101e357005b600080fd5b6101fb6101f63660046139b5565b6105c7565b6040516102099291906146c6565b60405180910390f35b34801561021e57600080fd5b5061023261022d366004613769565b610a94565b005b34801561024057600080fd5b5061023261024f366004613a90565b610b94565b34801561026057600080fd5b5061027461026f36600461367c565b610e45565b6040516102099190613f74565b61029461028f3660046137b3565b610e5a565b6040516102099190613dc0565b3480156102ad57600080fd5b506102946102bc36600461367c565b61106a565b3480156102cd57600080fd5b506102d6611085565b6040516102099190613f7f565b3480156102ef57600080fd5b506102326102fe366004613b98565b6110e5565b34801561030f57600080fd5b506102326111cb565b34801561032457600080fd5b5061033861033336600461367c565b611265565b6040516102099291906146ac565b34801561035257600080fd5b5061029461036136600461367c565b61128b565b34801561037257600080fd5b506102d6610381366004613b62565b6112a6565b34801561039257600080fd5b506102326103a1366004613b22565b6112fa565b3480156103b257600080fd5b506102326103c1366004613953565b611958565b3480156103d257600080fd5b506102326103e136600461373c565b611e23565b3480156103f257600080fd5b50610232610401366004613a0f565b611ee5565b34801561041257600080fd5b506102d661042136600461367c565b611f72565b34801561043257600080fd5b50610294611f84565b34801561044757600080fd5b50610274610456366004613698565b611f93565b34801561046757600080fd5b506101fb6104763660046139b5565b611fb3565b34801561048757600080fd5b506102326123e9565b34801561049c57600080fd5b506102946104ab36600461367c565b61243d565b3480156104bc57600080fd5b506102326104cb3660046136d0565b612458565b6102326104de366004613819565b6127a0565b3480156104ef57600080fd5b506102d66104fe366004613b62565b612863565b34801561050f57600080fd5b5061052361051e36600461367c565b6128af565b604051610209939291906146e9565b34801561053e57600080fd5b506102946128ee565b34801561055357600080fd5b50610232610562366004613bd1565b6128fd565b34801561057357600080fd5b50610232610582366004613965565b612a67565b34801561059357600080fd5b506102326105a236600461387f565b612c0b565b3480156105b357600080fd5b506102d66105c2366004613953565b612ee5565b600080856001600160a01b03811633148015906105ed57506001600160a01b0381163014155b1561067857336000908152600260205260409020546001600160a01b0316806106315760405162461bcd60e51b8152600401610628906144c2565b60405180910390fd5b6001600160a01b0380821660009081526003602090815260408083209386168352929052205460ff166106765760405162461bcd60e51b815260040161062890614345565b505b6001600160a01b03861661069e5760405162461bcd60e51b8152600401610628906142a2565b60006001600160a01b038916156106b557886106d7565b7f00000000000000000000000000000000000000000000000000000000000000005b90506106e16135a0565b506001600160a01b0381166000908152600760209081526040918290208251808401909352546001600160801b03808216808552600160801b90920416918301919091521515806107a257506000826001600160a01b03166318160ddd6040518163ffffffff1660e01b815260040160206040518083038186803b15801561076857600080fd5b505afa15801561077c573d6000803e3d6000fd5b505050506040513d601f19601f820116820180604052508101906107a09190613c42565b115b6107be5760405162461bcd60e51b8152600401610628906141c6565b85610816576107cf81886000612f02565b95506103e86107f46107e088612f9c565b60208401516001600160801b031690612fc9565b6001600160801b0316101561081157600080945094505050610a89565b610825565b61082281876001612ffe565b96505b6001600160a01b0389163014158061084457506001600160a01b038a16155b8061086c57508051610868906001600160801b03166108628461307d565b9061313e565b8711155b6108885760405162461bcd60e51b81526004016106289061407c565b6001600160a01b038083166000908152600660209081526040808320938c16835292905220546108b89087613161565b6001600160a01b038084166000908152600660209081526040808320938d16835292905220556108fe6108ea87612f9c565b60208301516001600160801b031690612fc9565b6001600160801b0316602082015261092961091888612f9c565b82516001600160801b031690612fc9565b6001600160801b0390811682526001600160a01b03808416600090815260076020908152604090912084518154928601518516600160801b029085166fffffffffffffffffffffffffffffffff1990931692909217909316179091558a16610a04577f00000000000000000000000000000000000000000000000000000000000000006001600160a01b031663d0e30db0886040518263ffffffff1660e01b81526004016000604051808303818588803b1580156109e657600080fd5b505af11580156109fa573d6000803e3d6000fd5b5050505050610a29565b6001600160a01b0389163014610a2957610a296001600160a01b0383168a308a613184565b876001600160a01b0316896001600160a01b0316836001600160a01b03167fb2346165e782564f17f5b7e555c21f4fd96fbc93458572bf0113ea35a958fc558a8a604051610a789291906146c6565b60405180910390a486945085935050505b509550959350505050565b6000546001600160a01b03163314610abe5760405162461bcd60e51b815260040161062890614310565b8115610b66576001600160a01b038316151580610ad85750805b610af45760405162461bcd60e51b81526004016106289061418f565b600080546040516001600160a01b03808716939216917f8be0079c531659141344cd1fd0a4f28419497f9722a3daafe3b4186f6b6457e091a3600080546001600160a01b03851673ffffffffffffffffffffffffffffffffffffffff1991821617909155600180549091169055610b8f565b6001805473ffffffffffffffffffffffffffffffffffffffff19166001600160a01b0385161790555b505050565b846001600160a01b0381163314801590610bb757506001600160a01b0381163014155b15610c3957336000908152600260205260409020546001600160a01b031680610bf25760405162461bcd60e51b8152600401610628906144c2565b6001600160a01b0380821660009081526003602090815260408083209386168352929052205460ff16610c375760405162461bcd60e51b815260040161062890614345565b505b600085858281610c4557fe5b9050602002016020810190610c5a919061367c565b6001600160a01b03161415610c815760405162461bcd60e51b81526004016106289061426b565b600084815b81811015610ddd576000888883818110610c9c57fe5b9050602002016020810190610cb1919061367c565b9050610d20878784818110610cc257fe5b90506020020135600660008e6001600160a01b03166001600160a01b031681526020019081526020016000206000846001600160a01b03166001600160a01b031681526020019081526020016000205461316190919063ffffffff16565b6001600160a01b03808d16600090815260066020908152604080832093861683529290522055610d6b878784818110610d5557fe5b905060200201358561316190919063ffffffff16565b9350806001600160a01b03168a6001600160a01b03168c6001600160a01b03167f6eabe333476233fd382224f233210cb808a7bc4c4de64f9d76628bf63c677b1a8a8a87818110610db857fe5b90506020020135604051610dcc9190613f7f565b60405180910390a450600101610c86565b506001600160a01b03808a166000908152600660209081526040808320938c1683529290522054610e0e908361313e565b6001600160a01b03998a1660009081526006602090815260408083209b909c16825299909952989097209790975550505050505050565b60046020526000908152604090205460ff1681565b60006001600160a01b038516610e825760405162461bcd60e51b815260040161062890614456565b606085901b8215610f0b5760008585604051610e9f929190613d6a565b604051809103902090506040517f3d602d80600a3d3981f3363d3d373d3d3d363d7300000000000000000000000081528260148201527f5af43d82803e903d91602b57fd5bf300000000000000000000000000000000006028820152816037826000f593505050610f67565b6040517f3d602d80600a3d3981f3363d3d373d3d3d363d7300000000000000000000000081528160148201527f5af43d82803e903d91602b57fd5bf3000000000000000000000000000000000060288201526037816000f09250505b6001600160a01b0382811660008181526002602052604090819020805473ffffffffffffffffffffffffffffffffffffffff1916938a169390931790925590517f4ddf47d4000000000000000000000000000000000000000000000000000000008152634ddf47d4903490610fe29089908990600401613ffe565b6000604051808303818588803b158015610ffb57600080fd5b505af115801561100f573d6000803e3d6000fd5b5050505050816001600160a01b0316866001600160a01b03167fd62166f3c2149208e51788b1401cc356bf5da1fc6c7886a32e18570f57d88b3b8787604051611059929190613ffe565b60405180910390a350949350505050565b6008602052600090815260409020546001600160a01b031681565b6000467f000000000000000000000000000000000000000000000000000000000000000081146110bd576110b8816132aa565b6110df565b7f00000000000000000000000000000000000000000000000000000000000000005b91505090565b6000546001600160a01b0316331461110f5760405162461bcd60e51b815260040161062890614310565b605f8167ffffffffffffffff16111561113a5760405162461bcd60e51b815260040161062890614641565b6001600160a01b0382166000818152600a60205260409081902080547fffffffffffffffffffffffffffffffff0000000000000000ffffffffffffffff166801000000000000000067ffffffffffffffff861602179055517f7543af99b5602c06e62da0631b5308489a5ff859150105a623b6eb15e8deae0b906111bf9084906146d4565b60405180910390a25050565b6001546001600160a01b03163381146111f65760405162461bcd60e51b81526004016106289061437c565b600080546040516001600160a01b03808516939216917f8be0079c531659141344cd1fd0a4f28419497f9722a3daafe3b4186f6b6457e091a3600080546001600160a01b0390921673ffffffffffffffffffffffffffffffffffffffff19928316179055600180549091169055565b6007602052600090815260409020546001600160801b0380821691600160801b90041682565b6009602052600090815260409020546001600160a01b031681565b6001600160a01b03831660009081526007602090815260408083208151808301909252546001600160801b038082168352600160801b90910416918101919091526112f2908484612ffe565b949350505050565b6113026135b7565b506001600160a01b038381166000818152600a602090815260408083208151606081018352905467ffffffffffffffff80821683526801000000000000000082041682850152600160801b90046001600160801b0316818301908152948452600890925280832054935190517f18fccc760000000000000000000000000000000000000000000000000000000081529194939093169283916318fccc76916113ae91339060040161468a565b602060405180830381600087803b1580156113c857600080fd5b505af11580156113dc573d6000803e3d6000fd5b505050506040513d601f19601f820116820180604052508101906114009190613c42565b90508015801561140e575084155b1561141b57505050610b8f565b6001600160a01b0386166000908152600760205260408120546001600160801b0316908213156114da57816114508282613161565b915061145b82612f9c565b6001600160a01b0389166000818152600760205260409081902080546fffffffffffffffffffffffffffffffff19166001600160801b03949094169390931790925590517f911c9f20a03edabcbcbd18dca1174cce47a91b234ced7a5a3c60ba0d5b56c5d2906114cc908490613f7f565b60405180910390a2506115b1565b60008212156115b15760008290036114f2828261313e565b91506114fd82612f9c565b6001600160a01b038916600090815260076020526040902080546fffffffffffffffffffffffffffffffff19166001600160801b039290921691909117905561155c61154882612f9c565b60408701516001600160801b031690613321565b6001600160801b0316604080870191909152516001600160a01b038916907f8f1f26eb9b6aa8689dbdd519ead1999d9c8819d4738e403b2003b18197d9cf97906115a7908490613f7f565b60405180910390a2505b85156118a357600060646115dc866020015167ffffffffffffffff168461335090919063ffffffff16565b816115e357fe5b0490508085604001516001600160801b0316101561173757600061161d86604001516001600160801b03168361313e90919063ffffffff16565b9050861580159061162d57508681115b156116355750855b6116496001600160a01b038a168683613387565b61166961165582612f9c565b60408801516001600160801b031690612fc9565b6001600160801b0316604080880191909152517f6939aaf50000000000000000000000000000000000000000000000000000000081526001600160a01b03861690636939aaf5906116be908490600401613f7f565b600060405180830381600087803b1580156116d857600080fd5b505af11580156116ec573d6000803e3d6000fd5b50505050886001600160a01b03167fb18e7e4f6eac147a63a3bb6beb2d9039c88698623aff3efc4febbc20b0164ee5826040516117299190613f7f565b60405180910390a2506118a1565b8085604001516001600160801b031611156118a157600061176e61175a83612f9c565b60408801516001600160801b031690613321565b6001600160801b03169050861580159061178757508681115b1561178f5750855b6040517f2e1a7d4d0000000000000000000000000000000000000000000000000000000081526000906001600160a01b03871690632e1a7d4d906117d7908590600401613f7f565b602060405180830381600087803b1580156117f157600080fd5b505af1158015611805573d6000803e3d6000fd5b505050506040513d601f19601f820116820180604052508101906118299190613c42565b905061184b61183782612f9c565b60408901516001600160801b031690613321565b6001600160801b0316604080890191909152516001600160a01b038b16907f39aa22060f8dd4d291720311feedf3b72fef47c06c66ccf5c22b502c62e7550a90611896908490613f7f565b60405180910390a250505b505b5050506001600160a01b0384166000908152600a6020908152604091829020835181549285015193909401516001600160801b03908116600160801b0267ffffffffffffffff94851668010000000000000000027fffffffffffffffffffffffffffffffff0000000000000000ffffffffffffffff959096167fffffffffffffffffffffffffffffffffffffffffffffffff000000000000000090941693909317939093169390931791909116179055505050565b6000546001600160a01b031633146119825760405162461bcd60e51b815260040161062890614310565b61198a6135b7565b506001600160a01b038281166000818152600a602090815260408083208151606081018352905467ffffffffffffffff8082168352680100000000000000008204811683860152600160801b9091046001600160801b031682840152948452600990925290912054815191931691161580611a175750826001600160a01b0316816001600160a01b031614155b15611aaf576001600160a01b038481166000908152600960205260409020805473ffffffffffffffffffffffffffffffffffffffff1916918516919091179055611a656212750042016134aa565b67ffffffffffffffff1682526040516001600160a01b0380851691908616907f6f7ccdf3f86039e5a1dcf6028bf7b4773cbf7a234716ba2e5392b12bb0f8558f90600090a3611d72565b815167ffffffffffffffff1615801590611ad45750815167ffffffffffffffff164210155b611af05760405162461bcd60e51b8152600401610628906142d9565b6001600160a01b038481166000908152600860205260409020541615611cee576001600160a01b03808516600090815260086020526040808220548582015191517f7f8661a100000000000000000000000000000000000000000000000000000000815292931691637f8661a191611b6a91600401614676565b602060405180830381600087803b158015611b8457600080fd5b505af1158015611b98573d6000803e3d6000fd5b505050506040513d601f19601f82011682018060405250810190611bbc9190613c42565b90506000811315611c33576001600160a01b03851660009081526007602052604090208190611beb90826134d4565b50856001600160a01b03167f911c9f20a03edabcbcbd18dca1174cce47a91b234ced7a5a3c60ba0d5b56c5d282604051611c259190613f7f565b60405180910390a250611ca7565b6000811215611ca7576001600160a01b03851660009081526007602052604081209082900390611c639082613521565b50856001600160a01b03167f8f1f26eb9b6aa8689dbdd519ead1999d9c8819d4738e403b2003b18197d9cf9782604051611c9d9190613f7f565b60405180910390a2505b846001600160a01b03167f39aa22060f8dd4d291720311feedf3b72fef47c06c66ccf5c22b502c62e7550a8460400151604051611ce49190614676565b60405180910390a2505b6001600160a01b038085166000818152600860209081526040808320805486881673ffffffffffffffffffffffffffffffffffffffff19918216179091558388528782018490528484526009909252808320805490921690915551928616927f03e6352a885adc4cc54767592939c3b1bbd65685658c3beaaba66a888120e2179190a35b506001600160a01b03929092166000908152600a6020908152604091829020845181549286015193909501517fffffffffffffffffffffffffffffffffffffffffffffffff000000000000000090921667ffffffffffffffff958616177fffffffffffffffffffffffffffffffff0000000000000000ffffffffffffffff16680100000000000000009590931694909402919091176001600160801b03908116600160801b91909216021790915550565b6000546001600160a01b03163314611e4d5760405162461bcd60e51b815260040161062890614310565b6001600160a01b038216611e735760405162461bcd60e51b8152600401610628906140b3565b6001600160a01b0382166000818152600460205260409081902080547fffffffffffffffffffffffffffffffffffffffffffffffffffffffffffffff0016841515179055517f31a1e0eac44b54ac6c2a2efa87e92c83405ffcf33fceef02a7bca695130e2600906111bf908490613f74565b6040517fd505accf0000000000000000000000000000000000000000000000000000000081526001600160a01b0389169063d505accf90611f36908a908a908a908a908a908a908a90600401613f1a565b600060405180830381600087803b158015611f5057600080fd5b505af1158015611f64573d6000803e3d6000fd5b505050505050505050505050565b60056020526000908152604090205481565b6000546001600160a01b031681565b600360209081526000928352604080842090915290825290205460ff1681565b600080856001600160a01b0381163314801590611fd957506001600160a01b0381163014155b1561205b57336000908152600260205260409020546001600160a01b0316806120145760405162461bcd60e51b8152600401610628906144c2565b6001600160a01b0380821660009081526003602090815260408083209386168352929052205460ff166120595760405162461bcd60e51b815260040161062890614345565b505b6001600160a01b0386166120815760405162461bcd60e51b8152600401610628906142a2565b60006001600160a01b0389161561209857886120ba565b7f00000000000000000000000000000000000000000000000000000000000000005b90506120c46135a0565b506001600160a01b0381166000908152600760209081526040918290208251808401909352546001600160801b038082168452600160801b90910416908201528561211c5761211581886001612f02565b955061212b565b61212881876000612ffe565b96505b6001600160a01b038083166000908152600660209081526040808320938d168352929052205461215b908761313e565b6001600160a01b038084166000908152600660209081526040808320938e168352929052205561219e61218d88612f9c565b82516001600160801b031690613321565b6001600160801b031681526121c96121b587612f9c565b60208301516001600160801b031690613321565b6001600160801b0316602082018190526103e81115806121f4575060208101516001600160801b0316155b6122105760405162461bcd60e51b815260040161062890614158565b6001600160a01b03828116600090815260076020908152604090912083518154928501516fffffffffffffffffffffffffffffffff199093166001600160801b03918216178116600160801b91909316029190911790558a16612386576040517f2e1a7d4d0000000000000000000000000000000000000000000000000000000081526001600160a01b037f00000000000000000000000000000000000000000000000000000000000000001690632e1a7d4d906122d2908a90600401613f7f565b600060405180830381600087803b1580156122ec57600080fd5b505af1158015612300573d6000803e3d6000fd5b505050506000886001600160a01b03168860405161231d90613dbd565b60006040518083038185875af1925050503d806000811461235a576040519150601f19603f3d011682016040523d82523d6000602084013e61235f565b606091505b50509050806123805760405162461bcd60e51b8152600401610628906145d3565b5061239a565b61239a6001600160a01b0383168989613387565b876001600160a01b0316896001600160a01b0316836001600160a01b03167fad9ab9ee6953d4d177f4a03b3a3ac3178ffcb9816319f348060194aa76b144868a8a604051610a789291906146c6565b33600081815260026020526040808220805473ffffffffffffffffffffffffffffffffffffffff191684179055517fdfb44ffabf0d3a8f650d3ce43eff98f6d050e7ea1a396d5794f014e7dadabacb9190a2565b6002602052600090815260409020546001600160a01b031681565b6001600160a01b03851661247e5760405162461bcd60e51b81526004016106289061448b565b8115801561248a575080155b8015612497575060ff8316155b15612539576001600160a01b03861633146124c45760405162461bcd60e51b8152600401610628906140ea565b6001600160a01b0386811660009081526002602052604090205416156124fc5760405162461bcd60e51b8152600401610628906143e8565b6001600160a01b03851660009081526004602052604090205460ff166125345760405162461bcd60e51b81526004016106289061459c565b61270e565b6001600160a01b03861661255f5760405162461bcd60e51b81526004016106289061452e565b60006040518060400160405280600281526020017f190100000000000000000000000000000000000000000000000000000000000081525061259f611085565b7f1962bc9f5484cb7a998701b81090e966ee1fce5771af884cceee7c081b14ade2876125eb577fb426802f1f7dc850a7b6b38805edea2442f3992878a9ab985abfe8091d95d0b161260d565b7f422ac5323fe049241dee67716229a1cc1bc7b313b23dfe3ef6d42ab177a3b2845b6001600160a01b038b1660009081526005602090815260409182902080546001810190915591516126479493928e928e928e929101613f88565b6040516020818303038152906040528051906020012060405160200161266f93929190613d96565b6040516020818303038152906040528051906020012090506000600182868686604051600081526020016040526040516126ac9493929190613fe0565b6020604051602081039080840390855afa1580156126ce573d6000803e3d6000fd5b505050602060405103519050876001600160a01b0316816001600160a01b03161461270b5760405162461bcd60e51b81526004016106289061441f565b50505b6001600160a01b038581166000818152600360209081526040808320948b16808452949091529081902080547fffffffffffffffffffffffffffffffffffffffffffffffffffffffffffffff0016881515179055517f5f6ebb64ba012a851c6f014e6cad458ddf213d1512049b31cd06365c2b05925790612790908890613f74565b60405180910390a3505050505050565b60005b8281101561285d5760006060308686858181106127bc57fe5b90506020028101906127ce9190614716565b6040516127dc929190613d6a565b600060405180830381855af49150503d8060008114612817576040519150601f19603f3d011682016040523d82523d6000602084013e61281c565b606091505b50915091508115801561282c5750835b156128535761283a81613540565b60405162461bcd60e51b81526004016106289190614012565b50506001016127a3565b50505050565b6001600160a01b03831660009081526007602090815260408083208151808301909252546001600160801b038082168352600160801b90910416918101919091526112f2908484612f02565b600a6020526000908152604090205467ffffffffffffffff8082169168010000000000000000810490911690600160801b90046001600160801b031683565b6001546001600160a01b031681565b6000620186a061290e856032613350565b8161291557fe5b04905061292c6001600160a01b0386168786613387565b6040517f23e30c8b0000000000000000000000000000000000000000000000000000000081526001600160a01b038816906323e30c8b9061297b9033908990899087908a908a90600401613eb1565b600060405180830381600087803b15801561299557600080fd5b505af11580156129a9573d6000803e3d6000fd5b505050506129e06129b982612f9c565b6001600160a01b0387166000908152600760205260409020906001600160801b03166134d4565b6129e98661307d565b1015612a075760405162461bcd60e51b815260040161062890614565565b856001600160a01b0316856001600160a01b0316886001600160a01b03167f3be9b85936d5d30a1655ea116a17ee3d827b2cd428cc026ce5bf2ac46a2232048785604051612a569291906146c6565b60405180910390a450505050505050565b826001600160a01b0381163314801590612a8a57506001600160a01b0381163014155b15612b0c57336000908152600260205260409020546001600160a01b031680612ac55760405162461bcd60e51b8152600401610628906144c2565b6001600160a01b0380821660009081526003602090815260408083209386168352929052205460ff16612b0a5760405162461bcd60e51b815260040161062890614345565b505b6001600160a01b038316612b325760405162461bcd60e51b8152600401610628906142a2565b6001600160a01b03808616600090815260066020908152604080832093881683529290522054612b62908361313e565b6001600160a01b03868116600090815260066020908152604080832089851684529091528082209390935590851681522054612b9e9083613161565b6001600160a01b0380871660008181526006602090815260408083208986168085529252918290209490945551918716917f6eabe333476233fd382224f233210cb808a7bc4c4de64f9d76628bf63c677b1a90612bfc908790613f7f565b60405180910390a45050505050565b60608567ffffffffffffffff81118015612c2457600080fd5b50604051908082528060200260200182016040528015612c4e578160200160208202803683370190505b5090508560005b81811015612d1d576000878783818110612c6b57fe5b905060200201359050620186a0612c8c60328361335090919063ffffffff16565b81612c9357fe5b04848381518110612ca057fe5b602002602001018181525050612d148c8c84818110612cbb57fe5b9050602002016020810190612cd0919061367c565b898985818110612cdc57fe5b905060200201358c8c86818110612cef57fe5b9050602002016020810190612d04919061367c565b6001600160a01b03169190613387565b50600101612c55565b506040517fd9d176230000000000000000000000000000000000000000000000000000000081526001600160a01b038c169063d9d1762390612d719033908c908c908c908c908a908d908d90600401613dd4565b600060405180830381600087803b158015612d8b57600080fd5b505af1158015612d9f573d6000803e3d6000fd5b5050505060005b81811015611f64576000898983818110612dbc57fe5b9050602002016020810190612dd1919061367c565b9050612e19612df2858481518110612de557fe5b6020026020010151612f9c565b6001600160a01b0383166000908152600760205260409020906001600160801b03166134d4565b612e228261307d565b1015612e405760405162461bcd60e51b815260040161062890614565565b8b8b83818110612e4c57fe5b9050602002016020810190612e61919061367c565b6001600160a01b0316816001600160a01b03168e6001600160a01b03167f3be9b85936d5d30a1655ea116a17ee3d827b2cd428cc026ce5bf2ac46a2232048b8b87818110612eab57fe5b90506020020135888781518110612ebe57fe5b6020026020010151604051612ed49291906146c6565b60405180910390a450600101612da6565b600660209081526000928352604080842090915290825290205481565b82516000906001600160801b0316612f1b575081612f95565b835160208501516001600160801b0391821691612f3a91869116613350565b81612f4157fe5b049050818015612f8557508284602001516001600160801b0316612f7b86600001516001600160801b03168461335090919063ffffffff16565b81612f8257fe5b04105b15612f95576112f2816001613161565b9392505050565b60006001600160801b03821115612fc55760405162461bcd60e51b8152600401610628906141fd565b5090565b8181016001600160801b038083169082161015612ff85760405162461bcd60e51b815260040161062890614234565b92915050565b600083602001516001600160801b03166000141561301d575081612f95565b602084015184516001600160801b039182169161303c91869116613350565b8161304357fe5b049050818015612f8557508284600001516001600160801b0316612f7b86602001516001600160801b03168461335090919063ffffffff16565b6001600160a01b0381166000818152600a60205260408082205490517f70a082310000000000000000000000000000000000000000000000000000000081529192612ff892600160801b9092046001600160801b0316916370a08231906130e8903090600401613dc0565b60206040518083038186803b15801561310057600080fd5b505afa158015613114573d6000803e3d6000fd5b505050506040513d601f19601f820116820180604052508101906131389190613c42565b90613161565b80820382811115612ff85760405162461bcd60e51b815260040161062890614045565b81810181811015612ff85760405162461bcd60e51b815260040161062890614234565b60006060856001600160a01b03166323b872dd60e01b8686866040516024016131af93929190613ef6565b60408051601f198184030181529181526020820180517bffffffffffffffffffffffffffffffffffffffffffffffffffffffff167fffffffff0000000000000000000000000000000000000000000000000000000090941693909317909252905161321a9190613d7a565b6000604051808303816000865af19150503d8060008114613257576040519150601f19603f3d011682016040523d82523d6000602084013e61325c565b606091505b50915091508180156132865750805115806132865750808060200190518101906132869190613863565b6132a25760405162461bcd60e51b8152600401610628906144f9565b505050505050565b60007f8cad95687ba82c2ce50e74f7b754645e5117c3a5bec8151c0726d5857980a8667fd7df266aff736d415a9dc14b4158201d612e70d75b9c7f4e375ccfd20aa5166f83306040516020016133039493929190613fbc565b6040516020818303038152906040528051906020012090505b919050565b8082036001600160801b038084169082161115612ff85760405162461bcd60e51b815260040161062890614045565b600081158061336b5750508082028282828161336857fe5b04145b612ff85760405162461bcd60e51b81526004016106289061460a565b60006060846001600160a01b031663a9059cbb60e01b85856040516024016133b0929190613f5b565b60408051601f198184030181529181526020820180517bffffffffffffffffffffffffffffffffffffffffffffffffffffffff167fffffffff0000000000000000000000000000000000000000000000000000000090941693909317909252905161341b9190613d7a565b6000604051808303816000865af19150503d8060008114613458576040519150601f19603f3d011682016040523d82523d6000602084013e61345d565b606091505b50915091508180156134875750805115806134875750808060200190518101906134879190613863565b6134a35760405162461bcd60e51b815260040161062890614121565b5050505050565b600067ffffffffffffffff821115612fc55760405162461bcd60e51b8152600401610628906143b1565b60006134f36134e283612f9c565b84546001600160801b031690612fc9565b83546fffffffffffffffffffffffffffffffff19166001600160801b03919091169081179093555090919050565b60006134f361352f83612f9c565b84546001600160801b031690613321565b6060604482511015613586575060408051808201909152601d81527f5472616e73616374696f6e2072657665727465642073696c656e746c79000000602082015261331c565b60048201915081806020019051810190612ff89190613c5a565b604080518082019091526000808252602082015290565b604080516060810182526000808252602082018190529181019190915290565b60008083601f8401126135e8578182fd5b50813567ffffffffffffffff8111156135ff578182fd5b602083019150836020808302850101111561361957600080fd5b9250929050565b60008083601f840112613631578182fd5b50813567ffffffffffffffff811115613648578182fd5b60208301915083602082850101111561361957600080fd5b8035612ff8816147b1565b803560ff81168114612ff857600080fd5b60006020828403121561368d578081fd5b8135612f95816147b1565b600080604083850312156136aa578081fd5b82356136b5816147b1565b915060208301356136c5816147b1565b809150509250929050565b60008060008060008060c087890312156136e8578182fd5b86356136f3816147b1565b95506020870135613703816147b1565b94506040870135613713816147c9565b9350613722886060890161366b565b92506080870135915060a087013590509295509295509295565b6000806040838503121561374e578182fd5b8235613759816147b1565b915060208301356136c5816147c9565b60008060006060848603121561377d578283fd5b8335613788816147b1565b92506020840135613798816147c9565b915060408401356137a8816147c9565b809150509250925092565b600080600080606085870312156137c8578384fd5b84356137d3816147b1565b9350602085013567ffffffffffffffff8111156137ee578384fd5b6137fa87828801613620565b909450925050604085013561380e816147c9565b939692955090935050565b60008060006040848603121561382d578081fd5b833567ffffffffffffffff811115613843578182fd5b61384f868287016135d7565b90945092505060208401356137a8816147c9565b600060208284031215613874578081fd5b8151612f95816147c9565b600080600080600080600080600060a08a8c03121561389c578687fd5b89356138a7816147b1565b985060208a013567ffffffffffffffff808211156138c3578889fd5b6138cf8d838e016135d7565b909a50985060408c01359150808211156138e7578485fd5b6138f38d838e016135d7565b909850965060608c013591508082111561390b578485fd5b6139178d838e016135d7565b909650945060808c013591508082111561392f578384fd5b5061393c8c828d01613620565b915080935050809150509295985092959850929598565b600080604083850312156136aa578182fd5b6000806000806080858703121561397a578182fd5b8435613985816147b1565b93506020850135613995816147b1565b925060408501356139a5816147b1565b9396929550929360600135925050565b600080600080600060a086880312156139cc578283fd5b85356139d7816147b1565b945060208601356139e7816147b1565b935060408601356139f7816147b1565b94979396509394606081013594506080013592915050565b600080600080600080600080610100898b031215613a2b578182fd5b8835613a36816147b1565b97506020890135613a46816147b1565b96506040890135613a56816147b1565b95506060890135945060808901359350613a738a60a08b0161366b565b925060c0890135915060e089013590509295985092959890939650565b60008060008060008060808789031215613aa8578384fd5b8635613ab3816147b1565b95506020870135613ac3816147b1565b9450604087013567ffffffffffffffff80821115613adf578586fd5b613aeb8a838b016135d7565b90965094506060890135915080821115613b03578384fd5b50613b1089828a016135d7565b979a9699509497509295939492505050565b600080600060608486031215613b36578081fd5b8335613b41816147b1565b92506020840135613b51816147c9565b929592945050506040919091013590565b600080600060608486031215613b76578081fd5b8335613b81816147b1565b92506020840135915060408401356137a8816147c9565b60008060408385031215613baa578182fd5b8235613bb5816147b1565b9150602083013567ffffffffffffffff811681146136c5578182fd5b60008060008060008060a08789031215613be9578384fd5b8635613bf4816147b1565b95506020870135613c04816147b1565b94506040870135613c14816147b1565b935060608701359250608087013567ffffffffffffffff811115613c36578283fd5b613b1089828a01613620565b600060208284031215613c53578081fd5b5051919050565b600060208284031215613c6b578081fd5b815167ffffffffffffffff80821115613c82578283fd5b818401915084601f830112613c95578283fd5b815181811115613ca3578384fd5b6040516020601f19601f8401168201018181108482111715613cc3578586fd5b604052818152838201602001871015613cda578485fd5b613ceb826020830160208701614785565b9695505050505050565b6001600160a01b0316815260200190565b6000815180845260208085019450808401835b83811015613d3557815187529582019590820190600101613d19565b509495945050505050565b60008284528282602086013780602084860101526020601f19601f85011685010190509392505050565b6000828483379101908152919050565b60008251613d8c818460208701614785565b9190910192915050565b60008451613da8818460208901614785565b91909101928352506020820152604001919050565b90565b6001600160a01b0391909116815260200190565b600060a082016001600160a01b038b168352602060a08185015281613df98b84613f7f565b90508b9250835b8b811015613e2b57828401613e1e83613e198388613660565b613cf5565b9094509150600101613e00565b508481036040860152613e3e8982613f7f565b9250507f07ffffffffffffffffffffffffffffffffffffffffffffffffffffffffffffff881115613e6d578283fd5b8702613e7a81838b614779565b018281036060840152613e8d8187613d06565b90508281036080840152613ea2818587613d40565b9b9a5050505050505050505050565b60006001600160a01b03808916835280881660208401525085604083015284606083015260a06080830152613eea60a083018486613d40565b98975050505050505050565b6001600160a01b039384168152919092166020820152604081019190915260600190565b6001600160a01b0397881681529590961660208601526040850193909352606084019190915260ff16608083015260a082015260c081019190915260e00190565b6001600160a01b03929092168252602082015260400190565b901515815260200190565b90815260200190565b95865260208601949094526001600160a01b039283166040860152911660608401521515608083015260a082015260c00190565b938452602084019290925260408301526001600160a01b0316606082015260800190565b93845260ff9290921660208401526040830152606082015260800190565b6000602082526112f2602083018486613d40565b6000602082528251806020840152614031816040850160208701614785565b601f01601f19169190910160400192915050565b60208082526015908201527f426f72696e674d6174683a20556e646572666c6f770000000000000000000000604082015260600190565b60208082526017908201527f42656e746f426f783a20536b696d20746f6f206d756368000000000000000000604082015260600190565b6020808252601c908201527f4d6173746572434d67723a2043616e6e6f7420617070726f7665203000000000604082015260600190565b6020808252601b908201527f4d6173746572434d67723a2075736572206e6f742073656e6465720000000000604082015260600190565b6020808252601c908201527f426f72696e6745524332303a205472616e73666572206661696c656400000000604082015260600190565b60208082526016908201527f42656e746f426f783a2063616e6e6f7420656d70747900000000000000000000604082015260600190565b60208082526015908201527f4f776e61626c653a207a65726f20616464726573730000000000000000000000604082015260600190565b60208082526013908201527f42656e746f426f783a204e6f20746f6b656e7300000000000000000000000000604082015260600190565b6020808252601c908201527f426f72696e674d6174683a2075696e74313238204f766572666c6f7700000000604082015260600190565b60208082526018908201527f426f72696e674d6174683a20416464204f766572666c6f770000000000000000604082015260600190565b60208082526017908201527f42656e746f426f783a20746f5b305d206e6f7420736574000000000000000000604082015260600190565b60208082526014908201527f42656e746f426f783a20746f206e6f7420736574000000000000000000000000604082015260600190565b6020808252601a908201527f53747261746567794d616e616765723a20546f6f206561726c79000000000000604082015260600190565b6020808252818101527f4f776e61626c653a2063616c6c6572206973206e6f7420746865206f776e6572604082015260600190565b6020808252601f908201527f42656e746f426f783a205472616e73666572206e6f7420617070726f76656400604082015260600190565b6020808252818101527f4f776e61626c653a2063616c6c657220213d2070656e64696e67206f776e6572604082015260600190565b6020808252601b908201527f426f72696e674d6174683a2075696e743634204f766572666c6f770000000000604082015260600190565b60208082526019908201527f4d6173746572434d67723a207573657220697320636c6f6e6500000000000000604082015260600190565b6020808252601d908201527f4d6173746572434d67723a20496e76616c6964205369676e6174757265000000604082015260600190565b6020808252818101527f426f72696e67466163746f72793a204e6f206d6173746572436f6e7472616374604082015260600190565b6020808252601b908201527f4d6173746572434d67723a206d617374657243206e6f74207365740000000000604082015260600190565b6020808252601b908201527f42656e746f426f783a206e6f206d6173746572436f6e74726163740000000000604082015260600190565b6020808252818101527f426f72696e6745524332303a205472616e7366657246726f6d206661696c6564604082015260600190565b6020808252601c908201527f4d6173746572434d67723a20557365722063616e6e6f74206265203000000000604082015260600190565b60208082526016908201527f42656e746f426f783a2057726f6e6720616d6f756e7400000000000000000000604082015260600190565b6020808252601b908201527f4d6173746572434d67723a206e6f742077686974656c69737465640000000000604082015260600190565b6020808252601d908201527f42656e746f426f783a20455448207472616e73666572206661696c6564000000604082015260600190565b60208082526018908201527f426f72696e674d6174683a204d756c204f766572666c6f770000000000000000604082015260600190565b6020808252818101527f53747261746567794d616e616765723a2054617267657420746f6f2068696768604082015260600190565b6001600160801b0391909116815260200190565b6001600160801b039290921682526001600160a01b0316602082015260400190565b6001600160801b0392831681529116602082015260400190565b918252602082015260400190565b67ffffffffffffffff91909116815260200190565b67ffffffffffffffff93841681529190921660208201526001600160801b03909116604082015260600190565b60008083357fffffffffffffffffffffffffffffffffffffffffffffffffffffffffffffffe184360301811261474a578283fd5b83018035915067ffffffffffffffff821115614764578283fd5b60200191503681900382131561361957600080fd5b82818337506000910152565b60005b838110156147a0578181015183820152602001614788565b8381111561285d5750506000910152565b6001600160a01b03811681146147c657600080fd5b50565b80151581146147c657600080fdfea2646970667358221220fdd6bc03664ca6d4dcae6c048d63d59899f6a1e51091bdf9b184278394fa0a2264736f6c634300060c0033",
    "linkReferences": {}
  }
}