{
  "contractName": "ChainlinkOracle",
  "abi": [
    {
      "anonymous": false,
      "inputs": [
        {
          "indexed": true,
          "internalType": "address",
          "name": "previousOwner",
          "type": "address"
        },
        {
          "indexed": true,
          "internalType": "address",
          "name": "newOwner",
          "type": "address"
        }
      ],
      "name": "OwnershipTransferred",
      "type": "event"
    },
    {
      "inputs": [],
      "name": "owner",
      "outputs": [
        {
          "internalType": "address",
          "name": "",
          "type": "address"
        }
      ],
      "stateMutability": "view",
      "type": "function"
    },
    {
      "inputs": [],
      "name": "renounceOwnership",
      "outputs": [],
      "stateMutability": "nonpayable",
      "type": "function"
    },
    {
      "inputs": [
        {
          "internalType": "address",
          "name": "newOwner",
          "type": "address"
        }
      ],
      "name": "transferOwnership",
      "outputs": [],
      "stateMutability": "nonpayable",
      "type": "function"
    },
    {
      "inputs": [
        {
          "internalType": "address",
          "name": "pair",
          "type": "address"
        },
        {
          "internalType": "address",
          "name": "multiply",
          "type": "address"
        },
        {
          "internalType": "address",
          "name": "divide",
          "type": "address"
        },
        {
          "internalType": "uint256",
          "name": "decimals",
          "type": "uint256"
        }
      ],
      "name": "set",
      "outputs": [],
      "stateMutability": "nonpayable",
      "type": "function"
    },
    {
      "inputs": [
        {
          "internalType": "address",
          "name": "pair",
          "type": "address"
        }
      ],
      "name": "get",
      "outputs": [
        {
          "internalType": "bool",
          "name": "",
          "type": "bool"
        },
        {
          "internalType": "uint256",
          "name": "",
          "type": "uint256"
        }
      ],
      "stateMutability": "nonpayable",
      "type": "function"
    },
    {
      "inputs": [
        {
          "internalType": "address",
          "name": "pair",
          "type": "address"
        }
      ],
      "name": "peek",
      "outputs": [
        {
          "internalType": "uint256",
          "name": "",
          "type": "uint256"
        }
      ],
      "stateMutability": "view",
      "type": "function"
    }
  ],
  "bytecode": "0x608060405234801561001057600080fd5b50600080546001600160a01b0319163390811782556040519091907f8be0079c531659141344cd1fd0a4f28419497f9722a3daafe3b4186f6b6457e0908290a361084f8061005f6000396000f3fe608060405234801561001057600080fd5b50600436106100615760003560e01c80624d579514610066578063715018a6146100a45780638da5cb5b146100ac578063acefafae146100d0578063c2bc2efc14610108578063f2fde38b14610149575b600080fd5b6100a26004803603608081101561007c57600080fd5b506001600160a01b0381358116916020810135821691604082013516906060013561016f565b005b6100a261023c565b6100b46102e5565b604080516001600160a01b039092168252519081900360200190f35b6100f6600480360360208110156100e657600080fd5b50356001600160a01b03166102f4565b60408051918252519081900360200190f35b61012e6004803603602081101561011e57600080fd5b50356001600160a01b0316610487565b60408051921515835260208301919091528051918290030190f35b6100a26004803603602081101561015f57600080fd5b50356001600160a01b0316610627565b6000546001600160a01b031633146101ce576040805162461bcd60e51b815260206004820152601a60248201527f436861696e6c696e6b4f7261636c653a206e6f74206f776e6572000000000000604482015290519081900360640190fd5b6001600160a01b038416600090815260016020526040902060020154610236576001600160a01b03848116600090815260016020819052604090912080546001600160a01b031990811687851617825591810180549092169285169290921790556002018190555b50505050565b6000546001600160a01b0316331461029b576040805162461bcd60e51b815260206004820181905260248201527f4f776e61626c653a2063616c6c6572206973206e6f7420746865206f776e6572604482015290519081900360640190fd5b600080546040516001600160a01b03909116907f8be0079c531659141344cd1fd0a4f28419497f9722a3daafe3b4186f6b6457e0908390a3600080546001600160a01b0319169055565b6000546001600160a01b031681565b6001600160a01b03808216600090815260016020819052604082208054918101549293670de0b6b3a76400009391928116911681156103ab576000826001600160a01b031663feaf968c6040518163ffffffff1660e01b815260040160a06040518083038186803b15801561036857600080fd5b505afa15801561037c573d6000803e3d6000fd5b505050506040513d60a081101561039257600080fd5b506020015190506103a38582610726565b9450506103c0565b6103bd84670de0b6b3a7640000610726565b93505b6001600160a01b03811615610449576000816001600160a01b031663feaf968c6040518163ffffffff1660e01b815260040160a06040518083038186803b15801561040a57600080fd5b505afa15801561041e573d6000803e3d6000fd5b505050506040513d60a081101561043457600080fd5b506020015190506104458582610795565b9450505b6001600160a01b0382161561046d5761046a84670de0b6b3a7640000610795565b93505b600283015461047d908590610795565b9695505050505050565b6001600160a01b038082166000908152600160208190526040822080549181015492938493670de0b6b3a76400009382169116811561053e576000826001600160a01b031663feaf968c6040518163ffffffff1660e01b815260040160a06040518083038186803b1580156104fb57600080fd5b505afa15801561050f573d6000803e3d6000fd5b505050506040513d60a081101561052557600080fd5b506020015190506105368582610726565b945050610553565b61055084670de0b6b3a7640000610726565b93505b6001600160a01b038116156105dc576000816001600160a01b031663feaf968c6040518163ffffffff1660e01b815260040160a06040518083038186803b15801561059d57600080fd5b505afa1580156105b1573d6000803e3d6000fd5b505050506040513d60a08110156105c757600080fd5b506020015190506105d88582610795565b9450505b6001600160a01b03821615610600576105fd84670de0b6b3a7640000610795565b93505b6002830154610610908590610795565b600390930183905550600194509092505050915091565b6000546001600160a01b03163314610686576040805162461bcd60e51b815260206004820181905260248201527f4f776e61626c653a2063616c6c6572206973206e6f7420746865206f776e6572604482015290519081900360640190fd5b6001600160a01b0381166106cb5760405162461bcd60e51b81526004018080602001828103825260268152602001806107f46026913960400191505060405180910390fd5b600080546040516001600160a01b03808516939216917f8be0079c531659141344cd1fd0a4f28419497f9722a3daafe3b4186f6b6457e091a3600080546001600160a01b0319166001600160a01b0392909216919091179055565b6000826107355750600061078f565b8282028284828161074257fe5b041461078c576040805162461bcd60e51b8152602060048201526014602482015273426f72696e674d6174683a204f766572666c6f7760601b604482015290519081900360640190fd5b90505b92915050565b60008082116107e2576040805162461bcd60e51b81526020600482015260146024820152730426f72696e674d6174683a2044697620627920360641b604482015290519081900360640190fd5b8183816107eb57fe5b04939250505056fe4f776e61626c653a206e6577206f776e657220697320746865207a65726f2061646472657373a264697066735822122031b2f81869c69cb9aca07bde09ee5c6caf893f08778933dccea980821a432a7d64736f6c634300060c0033",
  "immutableReferences": {},
  "source": "// SPDX-License-Identifier: UNLICENSED\r\npragma solidity ^0.6.12;\r\nimport \"../libraries/BoringMath.sol\";\r\nimport \"../libraries/Ownable.sol\";\r\nimport \"../interfaces/IOracle.sol\";\r\n\r\n// ChainLink Aggregator\r\ninterface IAggregator {\r\n    function latestRoundData() external view returns (uint80, int256 answer, uint256, uint256, uint80);\r\n}\r\n\r\ncontract ChainlinkOracle is Ownable, IOracle {\r\n    using BoringMath for uint256; // Keep everything in uint256\r\n\r\n    struct SymbolPair {\r\n        address multiply;   // The ChainLink price to multiply by to get rate\r\n        address divide;     // The ChainLink price to divide by to get rate\r\n        uint256 decimals;   // Just pre-calc and store as something like 10000000000000000000000.\r\n        uint256 rate;\r\n    }\r\n\r\n    mapping(address => SymbolPair) symbols;\r\n\r\n    function set(address pair, address multiply, address divide, uint256 decimals) public {\r\n        require(msg.sender == owner, \"ChainlinkOracle: not owner\");\r\n\r\n        // The rate can only be set once. It cannot be changed.\r\n        if (symbols[pair].decimals == 0) {\r\n            symbols[pair].multiply = multiply;\r\n            symbols[pair].divide = divide;\r\n            symbols[pair].decimals = decimals;\r\n        }\r\n    }\r\n\r\n    // Get the latest exchange rate\r\n    function get(address pair) public override returns (bool, uint256) {\r\n        uint256 price = uint256(1e18);\r\n        SymbolPair storage s = symbols[pair];\r\n        address multiply = s.multiply;\r\n        address divide = s.divide;\r\n\r\n        if (multiply != address(0)) {\r\n            (, int256 priceC,,,) = IAggregator(multiply).latestRoundData();\r\n            price = price.mul(uint256(priceC));\r\n        } else {\r\n            price = price.mul(1e18);\r\n        }\r\n\r\n        if (divide != address(0)) {\r\n            (, int256 priceC,,,) = IAggregator(divide).latestRoundData();\r\n            price = price.div(uint256(priceC));\r\n        }\r\n\r\n        if (multiply != address(0)) {\r\n            price = price.div(1e18);\r\n        }\r\n\r\n        price = price.div(s.decimals);\r\n        s.rate = price;\r\n        return (true, price);\r\n    }\r\n\r\n    // Check the last exchange rate without any state changes\r\n    function peek(address pair) public override view returns (uint256) {\r\n        uint256 price = uint256(1e18);\r\n        SymbolPair storage s = symbols[pair];\r\n        address multiply = s.multiply;\r\n        address divide = s.divide;\r\n\r\n        if (multiply != address(0)) {\r\n            (, int256 priceC,,,) = IAggregator(multiply).latestRoundData();\r\n            price = price.mul(uint256(priceC));\r\n        } else {\r\n            price = price.mul(1e18);\r\n        }\r\n\r\n        if (divide != address(0)) {\r\n            (, int256 priceC,,,) = IAggregator(divide).latestRoundData();\r\n            price = price.div(uint256(priceC));\r\n        }\r\n\r\n        if (multiply != address(0)) {\r\n            price = price.div(1e18);\r\n        }\r\n\r\n        price = price.div(s.decimals);\r\n        return price;\r\n    }\r\n}",
  "sourcePath": "C:/Users/Bart/Dropbox/Code/BentoBox/src/contracts/oracles/ChainLinkOracle.sol",
  "compiler": {
    "name": "solc",
    "version": "0.6.12+commit.27d51765.Emscripten.clang"
  },
  "schemaVersion": "3.2.3",
  "updatedAt": "2020-10-13T13:59:13.678Z",
  "devdoc": {
    "kind": "dev",
    "methods": {},
    "version": 1
  },
  "userdoc": {
    "kind": "user",
    "methods": {},
    "version": 1
  }
}