{
  "contractName": "CompoundOracle",
  "abi": [
    {
      "inputs": [
        {
          "internalType": "contract IUniswapAnchoredView",
          "name": "oracle_",
          "type": "address"
        }
      ],
      "stateMutability": "nonpayable",
      "type": "constructor"
    },
    {
      "anonymous": false,
      "inputs": [
        {
          "indexed": true,
          "internalType": "address",
          "name": "previousOwner",
          "type": "address"
        },
        {
          "indexed": true,
          "internalType": "address",
          "name": "newOwner",
          "type": "address"
        }
      ],
      "name": "OwnershipTransferred",
      "type": "event"
    },
    {
      "inputs": [],
      "name": "owner",
      "outputs": [
        {
          "internalType": "address",
          "name": "",
          "type": "address"
        }
      ],
      "stateMutability": "view",
      "type": "function"
    },
    {
      "inputs": [],
      "name": "renounceOwnership",
      "outputs": [],
      "stateMutability": "nonpayable",
      "type": "function"
    },
    {
      "inputs": [
        {
          "internalType": "address",
          "name": "newOwner",
          "type": "address"
        }
      ],
      "name": "transferOwnership",
      "outputs": [],
      "stateMutability": "nonpayable",
      "type": "function"
    },
    {
      "inputs": [
        {
          "internalType": "address",
          "name": "pair",
          "type": "address"
        },
        {
          "internalType": "string",
          "name": "collateralSymbol",
          "type": "string"
        },
        {
          "internalType": "string",
          "name": "supplySymbol",
          "type": "string"
        }
      ],
      "name": "set",
      "outputs": [],
      "stateMutability": "nonpayable",
      "type": "function"
    },
    {
      "inputs": [
        {
          "internalType": "address",
          "name": "pair",
          "type": "address"
        }
      ],
      "name": "get",
      "outputs": [
        {
          "internalType": "bool",
          "name": "",
          "type": "bool"
        },
        {
          "internalType": "uint256",
          "name": "",
          "type": "uint256"
        }
      ],
      "stateMutability": "nonpayable",
      "type": "function"
    },
    {
      "inputs": [
        {
          "internalType": "address",
          "name": "pair",
          "type": "address"
        }
      ],
      "name": "peek",
      "outputs": [
        {
          "internalType": "uint256",
          "name": "",
          "type": "uint256"
        }
      ],
      "stateMutability": "view",
      "type": "function"
    }
  ],
  "bytecode": "0x608060405234801561001057600080fd5b50604051610ae2380380610ae28339818101604052602081101561003357600080fd5b5051600080546001600160a01b0319163390811782556040519091907f8be0079c531659141344cd1fd0a4f28419497f9722a3daafe3b4186f6b6457e0908290a3600180546001600160a01b0319166001600160a01b0392909216919091179055610a3f806100a36000396000f3fe608060405234801561001057600080fd5b50600436106100625760003560e01c8063715018a6146100675780638da5cb5b14610071578063acefafae14610095578063c2bc2efc146100cd578063d2c0e0321461010e578063f2fde38b146101e0575b600080fd5b61006f610206565b005b6100796102af565b604080516001600160a01b039092168252519081900360200190f35b6100bb600480360360208110156100ab57600080fd5b50356001600160a01b03166102be565b60408051918252519081900360200190f35b6100f3600480360360208110156100e357600080fd5b50356001600160a01b03166104e5565b60408051921515835260208301919091528051918290030190f35b61006f6004803603606081101561012457600080fd5b6001600160a01b03823516919081019060408101602082013564010000000081111561014f57600080fd5b82018360208201111561016157600080fd5b8035906020019184600183028401116401000000008311171561018357600080fd5b9193909290916020810190356401000000008111156101a157600080fd5b8201836020820111156101b357600080fd5b803590602001918460018302840111640100000000831117156101d557600080fd5b5090925090506106a5565b61006f600480360360208110156101f657600080fd5b50356001600160a01b0316610786565b6000546001600160a01b03163314610265576040805162461bcd60e51b815260206004820181905260248201527f4f776e61626c653a2063616c6c6572206973206e6f7420746865206f776e6572604482015290519081900360640190fd5b600080546040516001600160a01b03909116907f8be0079c531659141344cd1fd0a4f28419497f9722a3daafe3b4186f6b6457e0908390a3600080546001600160a01b0319169055565b6000546001600160a01b031681565b600180546001600160a01b0383811660009081526002602081815260408084209051631fc58c3360e31b8152600481019283529087018054600019988116156101000298909801909716929092046024830181905292956104df95949094169363fe2c619893909282916044909101908490801561037d5780601f106103525761010080835404028352916020019161037d565b820191906000526020600020905b81548152906001019060200180831161036057829003601f168201915b50509250505060206040518083038186803b15801561039b57600080fd5b505afa1580156103af573d6000803e3d6000fd5b505050506040513d60208110156103c557600080fd5b5051600180546001600160a01b038681166000908152600260208181526040928390209251631fc58c3360e31b815260048101918252835460001997811615610100029790970190961691909104602486018190526104d995939094169363fe2c6198938291604490910190849080156104805780601f1061045557610100808354040283529160200191610480565b820191906000526020600020905b81548152906001019060200180831161046357829003601f168201915b50509250505060206040518083038186803b15801561049e57600080fd5b505afa1580156104b2573d6000803e3d6000fd5b505050506040513d60208110156104c857600080fd5b5051670de0b6b3a764000090610885565b906108f2565b92915050565b600180546001600160a01b0383811660009081526002602081815260408084209051631fc58c3360e31b815260048101928352908701805460001998811615610100029890980190971692909204602483018190529295869561067c95169363fe2c6198939192918291604490910190849080156105a45780601f10610579576101008083540402835291602001916105a4565b820191906000526020600020905b81548152906001019060200180831161058757829003601f168201915b50509250505060206040518083038186803b1580156105c257600080fd5b505afa1580156105d6573d6000803e3d6000fd5b505050506040513d60208110156105ec57600080fd5b5051600180546001600160a01b038781166000908152600260208181526040928390209251631fc58c3360e31b815260048101918252835460001997811615610100029790970190961691909104602486018190526104d995939094169363fe2c6198938291604490910190849080156104805780601f1061045557610100808354040283529160200191610480565b6001600160a01b0393909316600090815260026020819052604090912001839055506001929050565b6000546001600160a01b03163314610704576040805162461bcd60e51b815260206004820152601960248201527f436f6d706f756e644f7261636c653a206e6f74206f776e657200000000000000604482015290519081900360640190fd5b6001600160a01b03851660009081526002602081905260409091205460001961010060018316150201160461077f576001600160a01b0385166000908152600260205260409020610756908585610950565b506001600160a01b038516600090815260026020526040902061077d906001018383610950565b505b5050505050565b6000546001600160a01b031633146107e5576040805162461bcd60e51b815260206004820181905260248201527f4f776e61626c653a2063616c6c6572206973206e6f7420746865206f776e6572604482015290519081900360640190fd5b6001600160a01b03811661082a5760405162461bcd60e51b81526004018080602001828103825260268152602001806109e46026913960400191505060405180910390fd5b600080546040516001600160a01b03808516939216917f8be0079c531659141344cd1fd0a4f28419497f9722a3daafe3b4186f6b6457e091a3600080546001600160a01b0319166001600160a01b0392909216919091179055565b600082610894575060006104df565b828202828482816108a157fe5b04146108eb576040805162461bcd60e51b8152602060048201526014602482015273426f72696e674d6174683a204f766572666c6f7760601b604482015290519081900360640190fd5b9392505050565b600080821161093f576040805162461bcd60e51b81526020600482015260146024820152730426f72696e674d6174683a2044697620627920360641b604482015290519081900360640190fd5b81838161094857fe5b049392505050565b828054600181600116156101000203166002900490600052602060002090601f016020900481019282601f106109915782800160ff198235161785556109be565b828001600101855582156109be579182015b828111156109be5782358255916020019190600101906109a3565b506109ca9291506109ce565b5090565b5b808211156109ca57600081556001016109cf56fe4f776e61626c653a206e6577206f776e657220697320746865207a65726f2061646472657373a2646970667358221220945014187e6891e64e2ce06d02259144f75eab146fe738fd815cefe52c2c912564736f6c634300060c0033",
  "immutableReferences": {},
  "source": "// SPDX-License-Identifier: UNLICENSED\r\npragma solidity ^0.6.12;\r\nimport \"../libraries/BoringMath.sol\";\r\nimport \"../libraries/Ownable.sol\";\r\nimport \"../interfaces/IOracle.sol\";\r\n\r\ninterface IUniswapAnchoredView {\r\n    function price(string memory symbol) external view returns (uint256);\r\n}\r\n\r\ncontract CompoundOracle is IOracle, Ownable {\r\n    using BoringMath for uint256;\r\n\r\n    IUniswapAnchoredView oracle;\r\n\r\n    struct PairInfo {\r\n        string collateralSymbol;\r\n        string supplySymbol;\r\n        uint256 rate;\r\n    }\r\n\r\n    mapping(address => PairInfo) pairs;\r\n\r\n    constructor(IUniswapAnchoredView oracle_) public {\r\n        oracle = oracle_;\r\n    }\r\n\r\n    function set(address pair, string calldata collateralSymbol, string calldata supplySymbol) public {\r\n        require(msg.sender == owner, \"CompoundOracle: not owner\");\r\n\r\n        // The rate can only be set once. It cannot be changed.\r\n        if (bytes(pairs[pair].collateralSymbol).length == 0) {\r\n            pairs[pair].collateralSymbol = collateralSymbol;\r\n            pairs[pair].supplySymbol = supplySymbol;\r\n        }\r\n    }\r\n\r\n    // Get the latest exchange rate\r\n    function get(address pair) public override returns (bool, uint256) {\r\n        pairs[pair].rate = uint256(1e18)\r\n            .mul(oracle.price(pairs[pair].collateralSymbol))\r\n            .div(oracle.price(pairs[pair].supplySymbol));\r\n        return (true, pairs[pair].rate);\r\n    }\r\n\r\n    // Check the last exchange rate without any state changes\r\n    function peek(address pair) public view override returns (uint256) {\r\n        return uint256(1e18)\r\n            .mul(oracle.price(pairs[pair].collateralSymbol))\r\n            .div(oracle.price(pairs[pair].supplySymbol));\r\n    }\r\n}",
  "sourcePath": "C:/Users/Bart/Dropbox/Code/BentoBox/src/contracts/oracles/CompoundOracle.sol",
  "compiler": {
    "name": "solc",
    "version": "0.6.12+commit.27d51765.Emscripten.clang"
  },
  "schemaVersion": "3.2.3",
  "updatedAt": "2020-10-13T13:59:13.696Z",
  "devdoc": {
    "kind": "dev",
    "methods": {},
    "version": 1
  },
  "userdoc": {
    "kind": "user",
    "methods": {},
    "version": 1
  }
}