{
  "contractName": "SLPOracle",
  "abi": [
    {
      "anonymous": false,
      "inputs": [
        {
          "indexed": true,
          "internalType": "address",
          "name": "previousOwner",
          "type": "address"
        },
        {
          "indexed": true,
          "internalType": "address",
          "name": "newOwner",
          "type": "address"
        }
      ],
      "name": "OwnershipTransferred",
      "type": "event"
    },
    {
      "inputs": [],
      "name": "owner",
      "outputs": [
        {
          "internalType": "address",
          "name": "",
          "type": "address"
        }
      ],
      "stateMutability": "view",
      "type": "function"
    },
    {
      "inputs": [],
      "name": "renounceOwnership",
      "outputs": [],
      "stateMutability": "nonpayable",
      "type": "function"
    },
    {
      "inputs": [
        {
          "internalType": "address",
          "name": "newOwner",
          "type": "address"
        }
      ],
      "name": "transferOwnership",
      "outputs": [],
      "stateMutability": "nonpayable",
      "type": "function"
    },
    {
      "inputs": [
        {
          "internalType": "address",
          "name": "pair",
          "type": "address"
        },
        {
          "internalType": "uint256",
          "name": "rate_",
          "type": "uint256"
        }
      ],
      "name": "set",
      "outputs": [],
      "stateMutability": "nonpayable",
      "type": "function"
    },
    {
      "inputs": [
        {
          "internalType": "address",
          "name": "pair",
          "type": "address"
        }
      ],
      "name": "get",
      "outputs": [
        {
          "internalType": "bool",
          "name": "",
          "type": "bool"
        },
        {
          "internalType": "uint256",
          "name": "",
          "type": "uint256"
        }
      ],
      "stateMutability": "nonpayable",
      "type": "function"
    },
    {
      "inputs": [
        {
          "internalType": "address",
          "name": "pair",
          "type": "address"
        }
      ],
      "name": "peek",
      "outputs": [
        {
          "internalType": "uint256",
          "name": "",
          "type": "uint256"
        }
      ],
      "stateMutability": "view",
      "type": "function"
    }
  ],
  "bytecode": "0x608060405234801561001057600080fd5b50600080546001600160a01b0319163390811782556040519091907f8be0079c531659141344cd1fd0a4f28419497f9722a3daafe3b4186f6b6457e0908290a36103dc8061005f6000396000f3fe608060405234801561001057600080fd5b50600436106100625760003560e01c80633825d82814610067578063715018a6146100955780638da5cb5b1461009d578063acefafae146100c1578063c2bc2efc146100f9578063f2fde38b1461013a575b600080fd5b6100936004803603604081101561007d57600080fd5b506001600160a01b038135169060200135610160565b005b6100936101ba565b6100a5610263565b604080516001600160a01b039092168252519081900360200190f35b6100e7600480360360208110156100d757600080fd5b50356001600160a01b0316610272565b60408051918252519081900360200190f35b61011f6004803603602081101561010f57600080fd5b50356001600160a01b0316610278565b60408051921515835260208301919091528051918290030190f35b6100936004803603602081101561015057600080fd5b50356001600160a01b0316610281565b6000546001600160a01b031633146101b6576040805162461bcd60e51b815260206004820152601460248201527329a62827b930b1b6329d103737ba1037bbb732b960611b604482015290519081900360640190fd5b5050565b6000546001600160a01b03163314610219576040805162461bcd60e51b815260206004820181905260248201527f4f776e61626c653a2063616c6c6572206973206e6f7420746865206f776e6572604482015290519081900360640190fd5b600080546040516001600160a01b03909116907f8be0079c531659141344cd1fd0a4f28419497f9722a3daafe3b4186f6b6457e0908390a3600080546001600160a01b0319169055565b6000546001600160a01b031681565b50600090565b60016000915091565b6000546001600160a01b031633146102e0576040805162461bcd60e51b815260206004820181905260248201527f4f776e61626c653a2063616c6c6572206973206e6f7420746865206f776e6572604482015290519081900360640190fd5b6001600160a01b0381166103255760405162461bcd60e51b81526004018080602001828103825260268152602001806103816026913960400191505060405180910390fd5b600080546040516001600160a01b03808516939216917f8be0079c531659141344cd1fd0a4f28419497f9722a3daafe3b4186f6b6457e091a3600080546001600160a01b0319166001600160a01b039290921691909117905556fe4f776e61626c653a206e6577206f776e657220697320746865207a65726f2061646472657373a26469706673582212204056deb919a023f02e54bcb2fe939f8d08f1536a46c4baf73728ad809f6ad1b064736f6c634300060c0033",
  "immutableReferences": {},
  "source": "// SPDX-License-Identifier: UNLICENSED\r\npragma solidity ^0.6.12;\r\nimport \"../libraries/BoringMath.sol\";\r\nimport \"../libraries/Ownable.sol\";\r\nimport \"../interfaces/IOracle.sol\";\r\n\r\ncontract SLPOracle is IOracle, Ownable {\r\n    struct PairInfo {\r\n        string collateralSymbol;\r\n        string supplySymbol;\r\n        uint256 rate;\r\n    }\r\n\r\n    mapping(address => PairInfo) pairs;\r\n\r\n    function set(address pair, uint256 rate_) public {\r\n        require(msg.sender == owner, \"SLPOracle: not owner\");\r\n    }\r\n\r\n    // Get the latest exchange rate\r\n    function get(address pair) public override returns (bool, uint256) {\r\n        return (true, 0);\r\n    }\r\n\r\n    // Check the last exchange rate without any state changes\r\n    function peek(address pair) public view override returns (uint256) {\r\n        return 0;\r\n    }\r\n}\r\n",
  "sourcePath": "C:/Users/Bart/Dropbox/Code/BentoBox/src/contracts/oracles/SLPOracle.sol",
  "compiler": {
    "name": "solc",
    "version": "0.6.12+commit.27d51765.Emscripten.clang"
  },
  "schemaVersion": "3.2.3",
  "updatedAt": "2020-10-13T13:59:13.712Z",
  "devdoc": {
    "kind": "dev",
    "methods": {},
    "version": 1
  },
  "userdoc": {
    "kind": "user",
    "methods": {},
    "version": 1
  }
}