{
  "contractName": "SushiSwapDelegateSwapper",
  "abi": [
    {
      "inputs": [
        {
          "internalType": "contract IUniswapV2Factory",
          "name": "factory_",
          "type": "address"
        }
      ],
      "stateMutability": "nonpayable",
      "type": "constructor"
    },
    {
      "anonymous": false,
      "inputs": [
        {
          "indexed": false,
          "internalType": "address",
          "name": "val",
          "type": "address"
        }
      ],
      "name": "Debug",
      "type": "event"
    },
    {
      "inputs": [],
      "name": "factory",
      "outputs": [
        {
          "internalType": "contract IUniswapV2Factory",
          "name": "",
          "type": "address"
        }
      ],
      "stateMutability": "view",
      "type": "function",
      "constant": true
    },
    {
      "inputs": [],
      "name": "tokenA",
      "outputs": [
        {
          "internalType": "address",
          "name": "",
          "type": "address"
        }
      ],
      "stateMutability": "view",
      "type": "function",
      "constant": true
    },
    {
      "inputs": [],
      "name": "tokenB",
      "outputs": [
        {
          "internalType": "address",
          "name": "",
          "type": "address"
        }
      ],
      "stateMutability": "view",
      "type": "function",
      "constant": true
    },
    {
      "inputs": [],
      "name": "vault",
      "outputs": [
        {
          "internalType": "contract IVault",
          "name": "",
          "type": "address"
        }
      ],
      "stateMutability": "view",
      "type": "function",
      "constant": true
    },
    {
      "inputs": [
        {
          "internalType": "contract SushiSwapDelegateSwapper",
          "name": "swapper",
          "type": "address"
        },
        {
          "internalType": "address",
          "name": "from",
          "type": "address"
        },
        {
          "internalType": "address",
          "name": "to",
          "type": "address"
        },
        {
          "internalType": "uint256",
          "name": "amountFrom",
          "type": "uint256"
        },
        {
          "internalType": "uint256",
          "name": "amountToMin",
          "type": "uint256"
        }
      ],
      "name": "swap",
      "outputs": [
        {
          "internalType": "uint256",
          "name": "",
          "type": "uint256"
        }
      ],
      "stateMutability": "nonpayable",
      "type": "function"
    }
  ],
  "bytecode": "0x608060405234801561001057600080fd5b506040516108b83803806108b88339818101604052602081101561003357600080fd5b5051600380546001600160a01b0319166001600160a01b03909216919091179055610855806100636000396000f3fe608060405234801561001057600080fd5b50600436106100575760003560e01c80630fc63d101461005c5780635f64b55b14610080578063c45a015514610088578063e343fe1214610090578063fbfa77cf146100e4575b600080fd5b6100646100ec565b604080516001600160a01b039092168252519081900360200190f35b6100646100fb565b61006461010a565b6100d2600480360360a08110156100a657600080fd5b506001600160a01b03813581169160208101358216916040820135169060608101359060800135610119565b60408051918252519081900360200190f35b6100646106d9565b6001546001600160a01b031681565b6002546001600160a01b031681565b6003546001600160a01b031681565b600080866001600160a01b031663c45a01556040518163ffffffff1660e01b815260040160206040518083038186803b15801561015557600080fd5b505afa158015610169573d6000803e3d6000fd5b505050506040513d602081101561017f57600080fd5b50516040805163e6a4390560e01b81526001600160a01b03898116600483015288811660248301529151919092169163e6a43905916044808301926020929190829003018186803b1580156101d357600080fd5b505afa1580156101e7573d6000803e3d6000fd5b505050506040513d60208110156101fd57600080fd5b5051600054604080516001600160a01b039092168252519192507f330da4cde831ccab151372275307c2f0cce2bcce846635cd66e6908f10d20363919081900360200190a1604080516001600160a01b038316815290517f330da4cde831ccab151372275307c2f0cce2bcce846635cd66e6908f10d203639181900360200190a1604080516001600160a01b038816815290517f330da4cde831ccab151372275307c2f0cce2bcce846635cd66e6908f10d203639181900360200190a160008054604080516317d5759960e31b81526001600160a01b038a811660048301528581166024830152604482018990529151919092169263beabacc892606480820193602093909283900390910190829087803b15801561031b57600080fd5b505af115801561032f573d6000803e3d6000fd5b505050506040513d602081101561034557600080fd5b505060408051630240bc6b60e21b8152905160009182916001600160a01b03851691630902f1ac916004808301926060929190829003018186803b15801561038c57600080fd5b505afa1580156103a0573d6000803e3d6000fd5b505050506040513d60608110156103b657600080fd5b50805160209182015160408051630dfe168160e01b815290516dffffffffffffffffffffffffffff93841696509290911693506000926001600160a01b03808d169390881692630dfe1681926004808301939192829003018186803b15801561041e57600080fd5b505afa158015610432573d6000803e3d6000fd5b505050506040513d602081101561044857600080fd5b50516001600160a01b03161415610595576104648784846106e8565b9050858110156104a55760405162461bcd60e51b81526004018080602001828103825260298152602001806107f76029913960400191505060405180910390fd5b6000805460408051838152602081019182905263022c0d9f60e01b825260248101848152604482018690526001600160a01b0393841660648301819052608060848401908152835160a48501819052958b169663022c0d9f96909589959394929160c4850191908083838b5b83811015610529578181015183820152602001610511565b50505050905090810190601f1680156105565780820380516001836020036101000a031916815260200191505b5095505050505050600060405180830381600087803b15801561057857600080fd5b505af115801561058c573d6000803e3d6000fd5b505050506106cc565b6105a08783856106e8565b9050858110156105e15760405162461bcd60e51b81526004018080602001828103825260298152602001806107f76029913960400191505060405180910390fd5b6000805460408051838152602081019182905263022c0d9f60e01b825260248101858152604482018590526001600160a01b0393841660648301819052608060848401908152835160a48501819052958b169663022c0d9f96899691959394929160c48501918083838a5b8381101561066457818101518382015260200161064c565b50505050905090810190601f1680156106915780820380516001836020036101000a031916815260200191505b5095505050505050600060405180830381600087803b1580156106b357600080fd5b505af11580156106c7573d6000803e3d6000fd5b505050505b9998505050505050505050565b6000546001600160a01b031681565b6000806106f7856103e5610736565b905060006107058285610736565b9050600061071f83610719886103e8610736565b906107a5565b905080828161072a57fe5b04979650505050505050565b6000826107455750600061079f565b8282028284828161075257fe5b041461079c576040805162461bcd60e51b8152602060048201526014602482015273426f72696e674d6174683a204f766572666c6f7760601b604482015290519081900360640190fd5b90505b92915050565b60008282018281101561079c576040805162461bcd60e51b8152602060048201526014602482015273426f72696e674d6174683a204f766572666c6f7760601b604482015290519081900360640190fdfe537573686953776170436c6f736564537761707065723a2072657475726e206e6f7420656e6f756768a264697066735822122052a4e05f634b6e6b920aa4abb63786958312c710cfa60045e8d4ece70b40860b64736f6c634300060c0033",
  "immutableReferences": {},
  "source": "// SPDX-License-Identifier: UNLICENSED\r\npragma solidity ^0.6.12;\r\nimport \"../libraries/BoringMath.sol\";\r\nimport \"../libraries/Ownable.sol\";\r\nimport \"../external/SushiSwapFactory.sol\";\r\nimport \"../interfaces/IVault.sol\";\r\n\r\ncontract SushiSwapDelegateSwapper {\r\n    using BoringMath for uint256;\r\n\r\n    // Keep at the top, these are members from Pair that will be available due to delegatecall\r\n    IVault public vault;\r\n    address public tokenA;\r\n    address public tokenB;\r\n\r\n    IUniswapV2Factory public factory;\r\n\r\n    constructor(IUniswapV2Factory factory_) public {\r\n        factory = factory_;\r\n    }\r\n\r\n    // given an input amount of an asset and pair reserves, returns the maximum output amount of the other asset\r\n    function getAmountOut(uint amountIn, uint reserveIn, uint reserveOut) internal pure returns (uint amountOut) {\r\n        uint amountInWithFee = amountIn.mul(997);\r\n        uint numerator = amountInWithFee.mul(reserveOut);\r\n        uint denominator = reserveIn.mul(1000).add(amountInWithFee);\r\n        amountOut = numerator / denominator;\r\n    }\r\n\r\n    event Debug(address val);\r\n\r\n    function swap(SushiSwapDelegateSwapper swapper, address from, address to, uint256 amountFrom, uint256 amountToMin) public returns (uint256) {\r\n        UniswapV2Pair pair = UniswapV2Pair(swapper.factory().getPair(from, to));\r\n\r\n        emit Debug(address(vault));\r\n        emit Debug(address(pair));\r\n        emit Debug(address(from));\r\n        vault.transfer(from, address(pair), amountFrom);\r\n\r\n        uint256 reserve0;\r\n        uint256 reserve1;\r\n        (reserve0, reserve1,) = pair.getReserves();\r\n        uint256 amountTo;\r\n        if (pair.token0() == from) {\r\n            amountTo = getAmountOut(amountFrom, reserve0, reserve1);\r\n            require(amountTo >= amountToMin, 'SushiSwapClosedSwapper: return not enough');\r\n            pair.swap(0, amountTo, address(vault), new bytes(0));\r\n        } else {\r\n            amountTo = getAmountOut(amountFrom, reserve1, reserve0);\r\n            require(amountTo >= amountToMin, 'SushiSwapClosedSwapper: return not enough');\r\n            pair.swap(amountTo, 0, address(vault), new bytes(0));\r\n        }\r\n        return amountTo;\r\n    }\r\n}\r\n",
  "sourcePath": "C:/Users/Bart/Dropbox/Code/BentoBox/src/contracts/swappers/SushiSwapDelegateSwapper.sol",
  "compiler": {
    "name": "solc",
    "version": "0.6.12+commit.27d51765.Emscripten.clang"
  },
  "schemaVersion": "3.2.3",
  "updatedAt": "2020-10-13T14:15:16.847Z",
  "networkType": "ethereum",
  "devdoc": {
    "kind": "dev",
    "methods": {},
    "version": 1
  },
  "userdoc": {
    "kind": "user",
    "methods": {},
    "version": 1
  }
}