{
  "contractName": "TestOracle",
  "abi": [
    {
      "anonymous": false,
      "inputs": [
        {
          "indexed": true,
          "internalType": "address",
          "name": "previousOwner",
          "type": "address"
        },
        {
          "indexed": true,
          "internalType": "address",
          "name": "newOwner",
          "type": "address"
        }
      ],
      "name": "OwnershipTransferred",
      "type": "event"
    },
    {
      "inputs": [],
      "name": "owner",
      "outputs": [
        {
          "internalType": "address",
          "name": "",
          "type": "address"
        }
      ],
      "stateMutability": "view",
      "type": "function",
      "constant": true
    },
    {
      "inputs": [],
      "name": "renounceOwnership",
      "outputs": [],
      "stateMutability": "nonpayable",
      "type": "function"
    },
    {
      "inputs": [
        {
          "internalType": "address",
          "name": "newOwner",
          "type": "address"
        }
      ],
      "name": "transferOwnership",
      "outputs": [],
      "stateMutability": "nonpayable",
      "type": "function"
    },
    {
      "inputs": [
        {
          "internalType": "address",
          "name": "pair",
          "type": "address"
        },
        {
          "internalType": "uint256",
          "name": "rate_",
          "type": "uint256"
        }
      ],
      "name": "set",
      "outputs": [],
      "stateMutability": "nonpayable",
      "type": "function"
    },
    {
      "inputs": [
        {
          "internalType": "address",
          "name": "pair",
          "type": "address"
        }
      ],
      "name": "get",
      "outputs": [
        {
          "internalType": "bool",
          "name": "",
          "type": "bool"
        },
        {
          "internalType": "uint256",
          "name": "",
          "type": "uint256"
        }
      ],
      "stateMutability": "nonpayable",
      "type": "function"
    },
    {
      "inputs": [
        {
          "internalType": "address",
          "name": "pair",
          "type": "address"
        }
      ],
      "name": "peek",
      "outputs": [
        {
          "internalType": "uint256",
          "name": "",
          "type": "uint256"
        }
      ],
      "stateMutability": "view",
      "type": "function",
      "constant": true
    }
  ],
  "bytecode": "0x608060405234801561001057600080fd5b50600080546001600160a01b0319163390811782556040519091907f8be0079c531659141344cd1fd0a4f28419497f9722a3daafe3b4186f6b6457e0908290a36104278061005f6000396000f3fe608060405234801561001057600080fd5b50600436106100625760003560e01c80633825d82814610067578063715018a6146100955780638da5cb5b1461009d578063acefafae146100c1578063c2bc2efc146100f9578063f2fde38b1461013a575b600080fd5b6100936004803603604081101561007d57600080fd5b506001600160a01b038135169060200135610160565b005b6100936101db565b6100a5610284565b604080516001600160a01b039092168252519081900360200190f35b6100e7600480360360208110156100d757600080fd5b50356001600160a01b0316610293565b60408051918252519081900360200190f35b61011f6004803603602081101561010f57600080fd5b50356001600160a01b03166102ae565b60408051921515835260208301919091528051918290030190f35b6100936004803603602081101561015057600080fd5b50356001600160a01b03166102cc565b6000546001600160a01b031633146101bf576040805162461bcd60e51b815260206004820152601760248201527f5065676765644f7261636c653a206e6f74206f776e6572000000000000000000604482015290519081900360640190fd5b6001600160a01b03909116600090815260016020526040902055565b6000546001600160a01b0316331461023a576040805162461bcd60e51b815260206004820181905260248201527f4f776e61626c653a2063616c6c6572206973206e6f7420746865206f776e6572604482015290519081900360640190fd5b600080546040516001600160a01b03909116907f8be0079c531659141344cd1fd0a4f28419497f9722a3daafe3b4186f6b6457e0908390a3600080546001600160a01b0319169055565b6000546001600160a01b031681565b6001600160a01b031660009081526001602052604090205490565b6001600160a01b031660009081526001602052604090205480151591565b6000546001600160a01b0316331461032b576040805162461bcd60e51b815260206004820181905260248201527f4f776e61626c653a2063616c6c6572206973206e6f7420746865206f776e6572604482015290519081900360640190fd5b6001600160a01b0381166103705760405162461bcd60e51b81526004018080602001828103825260268152602001806103cc6026913960400191505060405180910390fd5b600080546040516001600160a01b03808516939216917f8be0079c531659141344cd1fd0a4f28419497f9722a3daafe3b4186f6b6457e091a3600080546001600160a01b0319166001600160a01b039290921691909117905556fe4f776e61626c653a206e6577206f776e657220697320746865207a65726f2061646472657373a26469706673582212208b284c5050e2d25d174af94275df14c6567ae4cc3bb155da32787a016d5feae964736f6c634300060c0033",
  "immutableReferences": {},
  "source": "// SPDX-License-Identifier: UNLICENSED\r\npragma solidity ^0.6.12;\r\nimport \"../libraries/BoringMath.sol\";\r\nimport \"../libraries/Ownable.sol\";\r\nimport \"../interfaces/IOracle.sol\";\r\n\r\n// WARNING: This oracle is only for testing, please use PeggedOracle for a fixed value oracle\r\ncontract TestOracle is IOracle, Ownable {\r\n    using BoringMath for uint256;\r\n\r\n    mapping(address => uint256) rate;\r\n\r\n    function set(address pair, uint256 rate_) public {\r\n        require(msg.sender == owner, \"PeggedOracle: not owner\");\r\n\r\n        // The rate can be updated.\r\n        rate[pair] = rate_;\r\n    }\r\n\r\n    // Get the latest exchange rate\r\n    function get(address pair) public override returns (bool, uint256) {\r\n        uint256 _rate = rate[pair];\r\n        return (_rate != 0, _rate);\r\n    }\r\n\r\n    // Check the last exchange rate without any state changes\r\n    function peek(address pair) public view override returns (uint256) {\r\n        return rate[pair];\r\n    }\r\n}",
  "sourcePath": "C:/Users/Bart/Dropbox/Code/BentoBox/src/contracts/oracles/TestOracle.sol",
  "compiler": {
    "name": "solc",
    "version": "0.6.12+commit.27d51765.Emscripten.clang"
  },
  "schemaVersion": "3.2.3",
  "updatedAt": "2020-10-13T14:15:16.840Z",
  "networkType": "ethereum",
  "devdoc": {
    "kind": "dev",
    "methods": {},
    "version": 1
  },
  "userdoc": {
    "kind": "user",
    "methods": {},
    "version": 1
  }
}