{
  "contractName": "TokenA",
  "abi": [
    {
      "inputs": [],
      "stateMutability": "nonpayable",
      "type": "constructor"
    },
    {
      "anonymous": false,
      "inputs": [
        {
          "indexed": true,
          "internalType": "address",
          "name": "_owner",
          "type": "address"
        },
        {
          "indexed": true,
          "internalType": "address",
          "name": "_spender",
          "type": "address"
        },
        {
          "indexed": false,
          "internalType": "uint256",
          "name": "_value",
          "type": "uint256"
        }
      ],
      "name": "Approval",
      "type": "event"
    },
    {
      "anonymous": false,
      "inputs": [
        {
          "indexed": true,
          "internalType": "address",
          "name": "_from",
          "type": "address"
        },
        {
          "indexed": true,
          "internalType": "address",
          "name": "_to",
          "type": "address"
        },
        {
          "indexed": false,
          "internalType": "uint256",
          "name": "_value",
          "type": "uint256"
        }
      ],
      "name": "Transfer",
      "type": "event"
    },
    {
      "inputs": [
        {
          "internalType": "address",
          "name": "",
          "type": "address"
        }
      ],
      "name": "balanceOf",
      "outputs": [
        {
          "internalType": "uint256",
          "name": "",
          "type": "uint256"
        }
      ],
      "stateMutability": "view",
      "type": "function",
      "constant": true
    },
    {
      "inputs": [],
      "name": "decimals",
      "outputs": [
        {
          "internalType": "uint8",
          "name": "",
          "type": "uint8"
        }
      ],
      "stateMutability": "view",
      "type": "function",
      "constant": true
    },
    {
      "inputs": [],
      "name": "name",
      "outputs": [
        {
          "internalType": "string",
          "name": "",
          "type": "string"
        }
      ],
      "stateMutability": "view",
      "type": "function",
      "constant": true
    },
    {
      "inputs": [],
      "name": "symbol",
      "outputs": [
        {
          "internalType": "string",
          "name": "",
          "type": "string"
        }
      ],
      "stateMutability": "view",
      "type": "function",
      "constant": true
    },
    {
      "inputs": [],
      "name": "totalSupply",
      "outputs": [
        {
          "internalType": "uint256",
          "name": "",
          "type": "uint256"
        }
      ],
      "stateMutability": "view",
      "type": "function",
      "constant": true
    },
    {
      "inputs": [
        {
          "internalType": "address",
          "name": "to",
          "type": "address"
        },
        {
          "internalType": "uint256",
          "name": "amount",
          "type": "uint256"
        }
      ],
      "name": "transfer",
      "outputs": [
        {
          "internalType": "bool",
          "name": "success",
          "type": "bool"
        }
      ],
      "stateMutability": "nonpayable",
      "type": "function"
    },
    {
      "inputs": [
        {
          "internalType": "address",
          "name": "from",
          "type": "address"
        },
        {
          "internalType": "address",
          "name": "to",
          "type": "address"
        },
        {
          "internalType": "uint256",
          "name": "amount",
          "type": "uint256"
        }
      ],
      "name": "transferFrom",
      "outputs": [
        {
          "internalType": "bool",
          "name": "success",
          "type": "bool"
        }
      ],
      "stateMutability": "nonpayable",
      "type": "function"
    },
    {
      "inputs": [
        {
          "internalType": "address",
          "name": "spender",
          "type": "address"
        },
        {
          "internalType": "uint256",
          "name": "amount",
          "type": "uint256"
        }
      ],
      "name": "approve",
      "outputs": [
        {
          "internalType": "bool",
          "name": "success",
          "type": "bool"
        }
      ],
      "stateMutability": "nonpayable",
      "type": "function"
    }
  ],
  "bytecode": "0x60806040526a084595161401484a00000060005534801561001f57600080fd5b506000805433825260016020526040909120556104dc806100416000396000f3fe608060405234801561001057600080fd5b50600436106100885760003560e01c8063313ce5671161005b578063313ce5671461019a57806370a08231146101b857806395d89b41146101de578063a9059cbb146101e657610088565b806306fdde031461008d578063095ea7b31461010a57806318160ddd1461014a57806323b872dd14610164575b600080fd5b610095610212565b6040805160208082528351818301528351919283929083019185019080838360005b838110156100cf5781810151838201526020016100b7565b50505050905090810190601f1680156100fc5780820380516001836020036101000a031916815260200191505b509250505060405180910390f35b6101366004803603604081101561012057600080fd5b506001600160a01b038135169060200135610235565b604080519115158252519081900360200190f35b61015261029c565b60408051918252519081900360200190f35b6101366004803603606081101561017a57600080fd5b506001600160a01b038135811691602081013590911690604001356102a2565b6101a26103b4565b6040805160ff9092168252519081900360200190f35b610152600480360360208110156101ce57600080fd5b50356001600160a01b03166103b9565b6100956103cb565b610136600480360360408110156101fc57600080fd5b506001600160a01b0381351690602001356103e8565b60405180604001604052806007815260200166546f6b656e204160c81b81525081565b3360008181526002602090815260408083206001600160a01b038716808552908352818420869055815186815291519394909390927f8c5be1e5ebec7d5bd14f71427d1e84f3dd0314c0f7b2291e5b200ac8c7c3b925928290030190a35060015b92915050565b60005481565b6001600160a01b03831660009081526001602052604081205482118015906102ed57506001600160a01b03841660009081526002602090815260408083203384529091529020548211155b80156102f95750600082115b801561031e57506001600160a01b038316600090815260016020526040902054828101115b156103a9576001600160a01b0380851660008181526001602081815260408084208054899003905560028252808420338552825280842080548990039055948816808452918152918490208054870190558351868152935190937fddf252ad1be2c89b69c2b068fc378daa952ba7f163c4a11628f55a4df523b3ef92908290030190a35060016103ad565b5060005b9392505050565b601281565b60016020526000908152604090205481565b604051806040016040528060018152602001604160f81b81525081565b3360009081526001602052604081205482118015906104075750600082115b801561042c57506001600160a01b038316600090815260016020526040902054828101115b1561049e57336000818152600160209081526040808320805487900390556001600160a01b03871680845292819020805487019055805186815290519293927fddf252ad1be2c89b69c2b068fc378daa952ba7f163c4a11628f55a4df523b3ef929181900390910190a3506001610296565b50600061029656fea2646970667358221220b6311e83ad4e762d2c23c18bcceb38e31f3e3161ab5f30e66942d75cf77cae2064736f6c634300060c0033",
  "immutableReferences": {},
  "source": "// SPDX-License-Identifier: MIT\r\n// TokenA does not revert on errors, it just returns false\r\npragma solidity ^0.6.12;\r\ncontract TokenA {\r\n    string public constant symbol = \"A\";\r\n    string public constant name = \"Token A\";\r\n    uint8 public constant decimals = 18;\r\n    uint256 public totalSupply = 1e25;\r\n    mapping(address => uint256) public balanceOf;\r\n    mapping(address => mapping (address => uint256)) allowance;\r\n\r\n    event Transfer(address indexed _from, address indexed _to, uint256 _value);\r\n    event Approval(address indexed _owner, address indexed _spender, uint256 _value);\r\n\r\n    constructor() public {\r\n        balanceOf[msg.sender] = totalSupply;\r\n    }\r\n\r\n    function transfer(address to, uint256 amount) public returns (bool success) {\r\n        if (balanceOf[msg.sender] >= amount && amount > 0 && balanceOf[to] + amount > balanceOf[to]) {\r\n            balanceOf[msg.sender] -= amount;\r\n            balanceOf[to] += amount;\r\n            emit Transfer(msg.sender, to, amount);\r\n            return true;\r\n        } else {\r\n            return false;\r\n        }\r\n    }\r\n\r\n    function transferFrom(address from, address to, uint256 amount) public returns (bool success) {\r\n        if (balanceOf[from] >= amount && allowance[from][msg.sender] >= amount && amount > 0 && balanceOf[to] + amount > balanceOf[to]) {\r\n            balanceOf[from] -= amount;\r\n            allowance[from][msg.sender] -= amount;\r\n            balanceOf[to] += amount;\r\n            emit Transfer(from, to, amount);\r\n            return true;\r\n        } else {\r\n            return false;\r\n        }\r\n    }\r\n\r\n    function approve(address spender, uint256 amount) public returns (bool success) {\r\n        allowance[msg.sender][spender] = amount;\r\n        emit Approval(msg.sender, spender, amount);\r\n        return true;\r\n    }\r\n}",
  "sourcePath": "C:/Users/Bart/Dropbox/Code/BentoBox/src/contracts/external/TokenA.sol",
  "compiler": {
    "name": "solc",
    "version": "0.6.12+commit.27d51765.Emscripten.clang"
  },
  "schemaVersion": "3.2.3",
  "updatedAt": "2020-10-13T14:15:16.671Z",
  "networkType": "ethereum",
  "devdoc": {
    "kind": "dev",
    "methods": {},
    "version": 1
  },
  "userdoc": {
    "kind": "user",
    "methods": {},
    "version": 1
  }
}