{
  "address": "0x90763C10940A19D1de6cdE0f06Aed08387419C2f",
  "abi": [
    {
      "inputs": [
        {
          "internalType": "contract IERC20",
          "name": "_rewardToken",
          "type": "address"
        },
        {
          "internalType": "contract ILendingPool",
          "name": "_aaveLendingPool",
          "type": "address"
        },
        {
          "internalType": "contract IAaveIncentivesController",
          "name": "_incentiveController",
          "type": "address"
        },
        {
          "components": [
            {
              "internalType": "contract IERC20",
              "name": "token",
              "type": "address"
            },
            {
              "internalType": "contract IBentoBoxMinimal",
              "name": "bentoBox",
              "type": "address"
            },
            {
              "internalType": "address",
              "name": "strategyExecutor",
              "type": "address"
            },
            {
              "internalType": "address",
              "name": "factory",
              "type": "address"
            },
            {
              "internalType": "address",
              "name": "bridgeToken",
              "type": "address"
            }
          ],
          "internalType": "struct BaseStrategy.BaseStrategyParams",
          "name": "baseStrategyParams",
          "type": "tuple"
        }
      ],
      "stateMutability": "nonpayable",
      "type": "constructor"
    },
    {
      "anonymous": false,
      "inputs": [
        {
          "indexed": true,
          "internalType": "address",
          "name": "server",
          "type": "address"
        },
        {
          "indexed": true,
          "internalType": "address",
          "name": "token0",
          "type": "address"
        },
        {
          "indexed": true,
          "internalType": "address",
          "name": "token1",
          "type": "address"
        },
        {
          "indexed": false,
          "internalType": "uint256",
          "name": "amount0",
          "type": "uint256"
        },
        {
          "indexed": false,
          "internalType": "uint256",
          "name": "amount1",
          "type": "uint256"
        }
      ],
      "name": "LogConvert",
      "type": "event"
    },
    {
      "anonymous": false,
      "inputs": [
        {
          "indexed": true,
          "internalType": "address",
          "name": "executor",
          "type": "address"
        },
        {
          "indexed": false,
          "internalType": "bool",
          "name": "allowed",
          "type": "bool"
        }
      ],
      "name": "LogSetStrategyExecutor",
      "type": "event"
    },
    {
      "anonymous": false,
      "inputs": [
        {
          "indexed": true,
          "internalType": "address",
          "name": "previousOwner",
          "type": "address"
        },
        {
          "indexed": true,
          "internalType": "address",
          "name": "newOwner",
          "type": "address"
        }
      ],
      "name": "OwnershipTransferred",
      "type": "event"
    },
    {
      "inputs": [],
      "name": "aToken",
      "outputs": [
        {
          "internalType": "contract IERC20",
          "name": "",
          "type": "address"
        }
      ],
      "stateMutability": "view",
      "type": "function"
    },
    {
      "inputs": [],
      "name": "aaveLendingPool",
      "outputs": [
        {
          "internalType": "contract ILendingPool",
          "name": "",
          "type": "address"
        }
      ],
      "stateMutability": "view",
      "type": "function"
    },
    {
      "inputs": [
        {
          "internalType": "address",
          "name": "to",
          "type": "address"
        },
        {
          "internalType": "uint256",
          "name": "value",
          "type": "uint256"
        },
        {
          "internalType": "bytes",
          "name": "data",
          "type": "bytes"
        }
      ],
      "name": "afterExit",
      "outputs": [
        {
          "internalType": "bool",
          "name": "success",
          "type": "bool"
        }
      ],
      "stateMutability": "nonpayable",
      "type": "function"
    },
    {
      "inputs": [],
      "name": "bentoBox",
      "outputs": [
        {
          "internalType": "contract IBentoBoxMinimal",
          "name": "",
          "type": "address"
        }
      ],
      "stateMutability": "view",
      "type": "function"
    },
    {
      "inputs": [],
      "name": "bridgeToken",
      "outputs": [
        {
          "internalType": "address",
          "name": "",
          "type": "address"
        }
      ],
      "stateMutability": "view",
      "type": "function"
    },
    {
      "inputs": [],
      "name": "claimOwnership",
      "outputs": [],
      "stateMutability": "nonpayable",
      "type": "function"
    },
    {
      "inputs": [
        {
          "internalType": "uint256",
          "name": "balance",
          "type": "uint256"
        }
      ],
      "name": "exit",
      "outputs": [
        {
          "internalType": "int256",
          "name": "amountAdded",
          "type": "int256"
        }
      ],
      "stateMutability": "nonpayable",
      "type": "function"
    },
    {
      "inputs": [],
      "name": "exited",
      "outputs": [
        {
          "internalType": "bool",
          "name": "",
          "type": "bool"
        }
      ],
      "stateMutability": "view",
      "type": "function"
    },
    {
      "inputs": [],
      "name": "factory",
      "outputs": [
        {
          "internalType": "address",
          "name": "",
          "type": "address"
        }
      ],
      "stateMutability": "view",
      "type": "function"
    },
    {
      "inputs": [
        {
          "internalType": "uint256",
          "name": "balance",
          "type": "uint256"
        },
        {
          "internalType": "address",
          "name": "sender",
          "type": "address"
        }
      ],
      "name": "harvest",
      "outputs": [
        {
          "internalType": "int256",
          "name": "",
          "type": "int256"
        }
      ],
      "stateMutability": "nonpayable",
      "type": "function"
    },
    {
      "inputs": [],
      "name": "incentiveController",
      "outputs": [
        {
          "internalType": "contract IAaveIncentivesController",
          "name": "",
          "type": "address"
        }
      ],
      "stateMutability": "view",
      "type": "function"
    },
    {
      "inputs": [],
      "name": "maxBentoBoxBalance",
      "outputs": [
        {
          "internalType": "uint256",
          "name": "",
          "type": "uint256"
        }
      ],
      "stateMutability": "view",
      "type": "function"
    },
    {
      "inputs": [],
      "name": "owner",
      "outputs": [
        {
          "internalType": "address",
          "name": "",
          "type": "address"
        }
      ],
      "stateMutability": "view",
      "type": "function"
    },
    {
      "inputs": [],
      "name": "pendingOwner",
      "outputs": [
        {
          "internalType": "address",
          "name": "",
          "type": "address"
        }
      ],
      "stateMutability": "view",
      "type": "function"
    },
    {
      "inputs": [],
      "name": "rewardToken",
      "outputs": [
        {
          "internalType": "contract IERC20",
          "name": "",
          "type": "address"
        }
      ],
      "stateMutability": "view",
      "type": "function"
    },
    {
      "inputs": [
        {
          "internalType": "uint256",
          "name": "maxBalance",
          "type": "uint256"
        },
        {
          "internalType": "bool",
          "name": "rebalance",
          "type": "bool"
        },
        {
          "internalType": "uint256",
          "name": "maxChangeAmount",
          "type": "uint256"
        },
        {
          "internalType": "bool",
          "name": "harvestRewards",
          "type": "bool"
        }
      ],
      "name": "safeHarvest",
      "outputs": [],
      "stateMutability": "nonpayable",
      "type": "function"
    },
    {
      "inputs": [
        {
          "internalType": "address",
          "name": "executor",
          "type": "address"
        },
        {
          "internalType": "bool",
          "name": "value",
          "type": "bool"
        }
      ],
      "name": "setStrategyExecutor",
      "outputs": [],
      "stateMutability": "nonpayable",
      "type": "function"
    },
    {
      "inputs": [
        {
          "internalType": "uint256",
          "name": "amount",
          "type": "uint256"
        }
      ],
      "name": "skim",
      "outputs": [],
      "stateMutability": "nonpayable",
      "type": "function"
    },
    {
      "inputs": [
        {
          "internalType": "address",
          "name": "",
          "type": "address"
        }
      ],
      "name": "strategyExecutors",
      "outputs": [
        {
          "internalType": "bool",
          "name": "",
          "type": "bool"
        }
      ],
      "stateMutability": "view",
      "type": "function"
    },
    {
      "inputs": [
        {
          "internalType": "uint256",
          "name": "amountOutMin",
          "type": "uint256"
        },
        {
          "internalType": "address",
          "name": "inputToken",
          "type": "address"
        }
      ],
      "name": "swapExactTokensForUnderlying",
      "outputs": [
        {
          "internalType": "uint256",
          "name": "amountOut",
          "type": "uint256"
        }
      ],
      "stateMutability": "nonpayable",
      "type": "function"
    },
    {
      "inputs": [],
      "name": "token",
      "outputs": [
        {
          "internalType": "contract IERC20",
          "name": "",
          "type": "address"
        }
      ],
      "stateMutability": "view",
      "type": "function"
    },
    {
      "inputs": [
        {
          "internalType": "address",
          "name": "newOwner",
          "type": "address"
        },
        {
          "internalType": "bool",
          "name": "direct",
          "type": "bool"
        },
        {
          "internalType": "bool",
          "name": "renounce",
          "type": "bool"
        }
      ],
      "name": "transferOwnership",
      "outputs": [],
      "stateMutability": "nonpayable",
      "type": "function"
    },
    {
      "inputs": [
        {
          "internalType": "uint256",
          "name": "amount",
          "type": "uint256"
        }
      ],
      "name": "withdraw",
      "outputs": [
        {
          "internalType": "uint256",
          "name": "actualAmount",
          "type": "uint256"
        }
      ],
      "stateMutability": "nonpayable",
      "type": "function"
    }
  ],
  "transactionHash": "0x4239285f5b67c6dd9081412245a3e5abf97555d0c3ca4cb82b253cd03fd02cc1",
  "args": [
    "0x0000000000000000000000000000000000000000",
    "0xE0fBa4Fc209b4948668006B2bE61711b7f465bAe",
    "0x0000000000000000000000000000000000000000",
    [
      "0xd0A1E359811322d97991E03f863a0C30C2cF029C",
      "0xd1037B0485aDAdA2C0169bBe53b0395309D21fD2",
      "0x123B749C6aAE8761c4907a784bB8845e67991594",
      "0x0000000000000000000000000000000000000000",
      "0x0000000000000000000000000000000000000000"
    ]
  ],
  "solcInputHash": "01231640d18144063faab25b92af9230",
  "bytecode": "0x6101806040523480156200001257600080fd5b5060405162002e4738038062002e478339810160408190526200003591620002be565b600080546001600160a01b0319163390811782556040518392907f8be0079c531659141344cd1fd0a4f28419497f9722a3daafe3b4186f6b6457e0908290a380516001600160601b0319606091821b81166080908152602080850151841b831660a0526040808601516001600160a01b039081166000908152600390935291819020805460ff1916600117905584860151851b841660c0529190940151831b821660e05287831b82166101005286831b8216610120529185901b1661014052825190516335ea6a7560e01b8152918516916335ea6a75916200011a91600401620004b1565b6101806040518083038186803b1580156200013457600080fd5b505afa15801562000149573d6000803e3d6000fd5b505050506040513d601f19601f820116820180604052508101906200016f91906200039b565b60e0015160601b6001600160601b03191661016052805160405163095ea7b360e01b81526001600160a01b039091169063095ea7b390620001b990869060001990600401620004c5565b602060405180830381600087803b158015620001d457600080fd5b505af1158015620001e9573d6000803e3d6000fd5b505050506040513d601f19601f820116820180604052508101906200020f919062000295565b50505050506200051e565b8051620002278162000505565b92915050565b6000602082840312156200023f578081fd5b6200024b6020620004de565b9151825250919050565b80516001600160801b03811681146200022757600080fd5b805164ffffffffff811681146200022757600080fd5b805160ff811681146200022757600080fd5b600060208284031215620002a7578081fd5b81518015158114620002b7578182fd5b9392505050565b600080600080848603610100811215620002d6578384fd5b8551620002e38162000505565b6020870151909550620002f68162000505565b6040870151909450620003098162000505565b925060a0605f19820112156200031d578182fd5b506200032a60a0620004de565b60608601516200033a8162000505565b815260808601516200034c8162000505565b602082015260a0860151620003618162000505565b604082015260c0860151620003768162000505565b606082015260e08601516200038b8162000505565b6080820152939692955090935050565b6000610180808385031215620003af578182fd5b620003ba81620004de565b9050620003c884846200022d565b8152620003d9846020850162000255565b6020820152620003ed846040850162000255565b604082015262000401846060850162000255565b606082015262000415846080850162000255565b6080820152620004298460a0850162000255565b60a08201526200043d8460c085016200026d565b60c0820152620004518460e085016200021a565b60e082015261010062000467858286016200021a565b908201526101206200047c858583016200021a565b9082015261014062000491858583016200021a565b90820152610160620004a68585830162000283565b908201529392505050565b6001600160a01b0391909116815260200190565b6001600160a01b03929092168252602082015260400190565b6040518181016001600160401b0381118282101715620004fd57600080fd5b604052919050565b6001600160a01b03811681146200051b57600080fd5b50565b60805160601c60a05160601c60c05160601c60e05160601c6101005160601c6101205160601c6101405160601c6101605160601c6127d76200067060003980610a0e528061104d52806114ae52806115075280611a1f5250806107e55280611a735280611b14525080610faf528061109a528061134f52806113f0528061154b5280611615525080610ff7525080610ab35280610b6a5280610fd3525080610c435280610cad5280610ebc52806118f7528061192d5250806103a6528061043a528061057152806105e052806106435280610717528061082552806108e552806109bf5280610e29525080610467528061050c528061054f52806105be52806106c052806106f55280610963528061099d5280610a615280610bb95280610d4a5280610e56528061101b52806110c7528061137c528061141d52806114e55280611578528061164252506127d76000f3fe608060405234801561001057600080fd5b506004361061014d5760003560e01c80638da5cb5b116100c3578063e30c39781161007c578063e30c39781461027a578063e8bd73a514610282578063e9d337b81461028a578063f4734b0c14610292578063f7c618c11461029a578063fc0c546a146102a25761014d565b80638da5cb5b14610229578063a0c1f15e14610231578063a7edd48c14610239578063ba6275ab1461024c578063c45a01551461025f578063d9253c2d146102675761014d565b80635b9fe37f116101155780635b9fe37f146101cb5780635ce6c327146101e05780636939aaf5146101e85780636b2ace87146101fb57806374ceb267146102035780637f8661a1146102165761014d565b8063078dfbe71461015257806318fccc76146101675780632e1a7d4d146101905780634e71e0c8146101a35780635066ebdd146101ab575b600080fd5b610165610160366004611e7d565b6102aa565b005b61017a61017536600461203c565b610399565b6040516101879190612293565b60405180910390f35b61017a61019e36600461200c565b610636565b610165610741565b6101be6101b9366004611e24565b6107ce565b6040516101879190612288565b6101d36107e3565b604051610187919061218d565b6101be610807565b6101656101f636600461200c565b610817565b6101d3610823565b610165610211366004611e46565b610847565b61017a61022436600461200c565b6108d8565b6101d36109fd565b6101d3610a0c565b61017a61024736600461203c565b610a30565b61016561025a366004612068565b610dc9565b6101d3610eba565b6101be610275366004611ec6565b610ede565b6101d3610f98565b61017a610fa7565b6101d3610fad565b6101d3610fd1565b6101d3610ff5565b6101d3611019565b6000546001600160a01b031633146102dd5760405162461bcd60e51b81526004016102d49061249f565b60405180910390fd5b8115610378576001600160a01b0383161515806102f75750805b6103135760405162461bcd60e51b81526004016102d490612375565b600080546040516001600160a01b03808716939216917f8be0079c531659141344cd1fd0a4f28419497f9722a3daafe3b4186f6b6457e091a3600080546001600160a01b0385166001600160a01b031991821617909155600180549091169055610394565b600180546001600160a01b0319166001600160a01b0385161790555b505050565b6000336001600160a01b037f000000000000000000000000000000000000000000000000000000000000000016146103e35760405162461bcd60e51b81526004016102d490612468565b600154600160a01b900460ff161561040d5760405162461bcd60e51b81526004016102d49061250b565b6001600160a01b038216301480156104eb5750600254604051634ffe34db60e01b81526001600160a01b037f00000000000000000000000000000000000000000000000000000000000000001690634ffe34db9061048f907f00000000000000000000000000000000000000000000000000000000000000009060040161218d565b604080518083038186803b1580156104a657600080fd5b505afa1580156104ba573d6000803e3d6000fd5b505050506040513d601f19601f820116820180604052508101906104de9190611f83565b516001600160801b031611155b1561062c5760006104fb8461103d565b905060006105326001600160a01b037f0000000000000000000000000000000000000000000000000000000000000000163061114f565b90506000821261059f578015610596576105966001600160a01b037f0000000000000000000000000000000000000000000000000000000000000000167f000000000000000000000000000000000000000000000000000000000000000083611242565b91506106309050565b801561062457818101600081131561061b576106056001600160a01b037f0000000000000000000000000000000000000000000000000000000000000000167f000000000000000000000000000000000000000000000000000000000000000083611242565b61061183600003611338565b9250610630915050565b61061182611338565b509050610630565b5060005b92915050565b6000336001600160a01b037f000000000000000000000000000000000000000000000000000000000000000016146106805760405162461bcd60e51b81526004016102d490612468565b600154600160a01b900460ff16156106aa5760405162461bcd60e51b81526004016102d49061250b565b6106b3826113d9565b6106e66001600160a01b037f0000000000000000000000000000000000000000000000000000000000000000163061114f565b905061073c6001600160a01b037f0000000000000000000000000000000000000000000000000000000000000000167f000000000000000000000000000000000000000000000000000000000000000083611242565b919050565b6001546001600160a01b031633811461076c5760405162461bcd60e51b81526004016102d490612542565b600080546040516001600160a01b03808516939216917f8be0079c531659141344cd1fd0a4f28419497f9722a3daafe3b4186f6b6457e091a3600080546001600160a01b039092166001600160a01b0319928316179055600180549091169055565b60036020526000908152604090205460ff1681565b7f000000000000000000000000000000000000000000000000000000000000000081565b600154600160a01b900460ff1681565b61082081611338565b50565b7f000000000000000000000000000000000000000000000000000000000000000081565b6000546001600160a01b031633146108715760405162461bcd60e51b81526004016102d49061249f565b6001600160a01b03821660008181526003602052604090819020805460ff1916841515179081905590517fb08a78f53a7fe017d5ca8c8fcdbf06ffa2c31f2ab668378a17700d9fc558717e916108cc9160ff90911690612288565b60405180910390a25050565b6000336001600160a01b037f000000000000000000000000000000000000000000000000000000000000000016146109225760405162461bcd60e51b81526004016102d490612468565b600154600160a01b900460ff161561094c5760405162461bcd60e51b81526004016102d49061250b565b61095461149f565b60006109896001600160a01b037f0000000000000000000000000000000000000000000000000000000000000000163061114f565b838103925090506109e46001600160a01b037f0000000000000000000000000000000000000000000000000000000000000000167f000000000000000000000000000000000000000000000000000000000000000083611242565b506001805460ff60a01b1916600160a01b179055919050565b6000546001600160a01b031681565b7f000000000000000000000000000000000000000000000000000000000000000081565b3360009081526003602052604081205460ff16610a5f5760405162461bcd60e51b81526004016102d4906125e5565b7f00000000000000000000000000000000000000000000000000000000000000006001600160a01b0316826001600160a01b03161415610ab15760405162461bcd60e51b81526004016102d490612577565b7f00000000000000000000000000000000000000000000000000000000000000006001600160a01b03161515606081610aeb576002610aee565b60035b60ff1667ffffffffffffffff81118015610b0757600080fd5b50604051908082528060200260200182016040528015610b31578160200160208202803683370190505b5090508381600081518110610b4257fe5b60200260200101906001600160a01b031690816001600160a01b0316815250508115610bb7577f000000000000000000000000000000000000000000000000000000000000000081600181518110610b9657fe5b60200260200101906001600160a01b031690816001600160a01b0316815250505b7f000000000000000000000000000000000000000000000000000000000000000081600183510381518110610be857fe5b60200260200101906001600160a01b031690816001600160a01b0316815250506000610c3a3083600081518110610c1b57fe5b60200260200101516001600160a01b031661114f90919063ffffffff16565b90506060610c697f000000000000000000000000000000000000000000000000000000000000000083856116c1565b905080600182510381518110610c7b57fe5b6020026020010151945086851015610ca55760405162461bcd60e51b81526004016102d49061229c565b610d3d610cfb7f000000000000000000000000000000000000000000000000000000000000000085600081518110610cd957fe5b602002602001015186600181518110610cee57fe5b60200260200101516117d8565b82600081518110610d0857fe5b602002602001015185600081518110610d1d57fe5b60200260200101516001600160a01b03166112429092919063ffffffff16565b610d48818430611848565b7f00000000000000000000000000000000000000000000000000000000000000006001600160a01b0316866001600160a01b0316336001600160a01b03167f3b644720db133e4e05b302a56bdb46867109debe30c44b4f25566b3c41ed627b8589604051610db792919061269c565b60405180910390a45050505092915050565b3360009081526003602052604090205460ff16610df85760405162461bcd60e51b81526004016102d4906125e5565b8015610e0657610e066119fb565b8315610e125760028490555b6040516366c6bb0b60e01b81526001600160a01b037f000000000000000000000000000000000000000000000000000000000000000016906366c6bb0b90610e82907f000000000000000000000000000000000000000000000000000000000000000090879087906004016121a1565b600060405180830381600087803b158015610e9c57600080fd5b505af1158015610eb0573d6000803e3d6000fd5b5050505050505050565b7f000000000000000000000000000000000000000000000000000000000000000081565b600080546001600160a01b03163314610f095760405162461bcd60e51b81526004016102d49061249f565b600154600160a01b900460ff16610f325760405162461bcd60e51b81526004016102d4906124d4565b836001600160a01b03168383604051610f4b919061211b565b60006040518083038185875af1925050503d8060008114610f88576040519150601f19603f3d011682016040523d82523d6000602084013e610f8d565b606091505b509095945050505050565b6001546001600160a01b031681565b60025481565b7f000000000000000000000000000000000000000000000000000000000000000081565b7f000000000000000000000000000000000000000000000000000000000000000081565b7f000000000000000000000000000000000000000000000000000000000000000081565b7f000000000000000000000000000000000000000000000000000000000000000081565b6000806110736001600160a01b037f0000000000000000000000000000000000000000000000000000000000000000163061114f565b90508281039150600082131561114957604051631a4ca37b60e21b81526001600160a01b037f000000000000000000000000000000000000000000000000000000000000000016906369328dec906110f5907f0000000000000000000000000000000000000000000000000000000000000000908786039030906004016121db565b602060405180830381600087803b15801561110f57600080fd5b505af1158015611123573d6000803e3d6000fd5b505050506040513d601f19601f820116820180604052508101906111479190612024565b505b50919050565b6000806060846001600160a01b03166370a0823160e01b85604051602401611177919061218d565b60408051601f198184030181529181526020820180516001600160e01b03166001600160e01b03199094169390931790925290516111b5919061211b565b600060405180830381855afa9150503d80600081146111f0576040519150601f19603f3d011682016040523d82523d6000602084013e6111f5565b606091505b509150915081801561120957506020815110155b6112255760405162461bcd60e51b81526004016102d4906125ae565b808060200190518101906112399190612024565b95945050505050565b60006060846001600160a01b031663a9059cbb60e01b858560405160240161126b9291906121c2565b60408051601f198184030181529181526020820180516001600160e01b03166001600160e01b03199094169390931790925290516112a9919061211b565b6000604051808303816000865af19150503d80600081146112e6576040519150601f19603f3d011682016040523d82523d6000602084013e6112eb565b606091505b50915091508180156113155750805115806113155750808060200190518101906113159190611f67565b6113315760405162461bcd60e51b81526004016102d4906122e2565b5050505050565b60405163e8eda9df60e01b81526001600160a01b037f0000000000000000000000000000000000000000000000000000000000000000169063e8eda9df906113ab907f000000000000000000000000000000000000000000000000000000000000000090859030906000906004016121fe565b600060405180830381600087803b1580156113c557600080fd5b505af1158015611331573d6000803e3d6000fd5b604051631a4ca37b60e21b81526001600160a01b037f000000000000000000000000000000000000000000000000000000000000000016906369328dec90611449907f000000000000000000000000000000000000000000000000000000000000000090859030906004016121db565b602060405180830381600087803b15801561146357600080fd5b505af1158015611477573d6000803e3d6000fd5b505050506040513d601f19601f8201168201806040525081019061149b9190612024565b5050565b60006114d46001600160a01b037f0000000000000000000000000000000000000000000000000000000000000000163061114f565b9050600061152b6001600160a01b037f0000000000000000000000000000000000000000000000000000000000000000167f000000000000000000000000000000000000000000000000000000000000000061114f565b90508082116115fe57604051631a4ca37b60e21b81526001600160a01b037f000000000000000000000000000000000000000000000000000000000000000016906369328dec906115a4907f000000000000000000000000000000000000000000000000000000000000000090869030906004016121db565b602060405180830381600087803b1580156115be57600080fd5b505af19250505080156115ee575060408051601f3d908101601f191682019092526115eb91810190612024565b60015b6115f7576115f9565b505b61149b565b604051631a4ca37b60e21b81526001600160a01b037f000000000000000000000000000000000000000000000000000000000000000016906369328dec9061166e907f000000000000000000000000000000000000000000000000000000000000000090859030906004016121db565b602060405180830381600087803b15801561168857600080fd5b505af19250505080156116b8575060408051601f3d908101601f191682019092526116b591810190612024565b60015b6103945761149b565b60606002825110156116e55760405162461bcd60e51b81526004016102d4906123e9565b815167ffffffffffffffff811180156116fd57600080fd5b50604051908082528060200260200182016040528015611727578160200160208202803683370190505b509050828160008151811061173857fe5b60200260200101818152505060005b60018351038110156117d05760008061178a8786858151811061176657fe5b602002602001015187866001018151811061177d57fe5b6020026020010151611b9f565b915091506117ac84848151811061179d57fe5b60200260200101518383611c78565b8484600101815181106117bb57fe5b60209081029190910101525050600101611747565b509392505050565b60008060006117e78585611d12565b915091508582826040516020016117ff9291906120f4565b60405160208183030381529060405280519060200120604051602001611826929190612137565b60408051601f1981840301815291905280516020909101209695505050505050565b60005b60018351038110156119f55760008084838151811061186657fe5b602002602001015185846001018151811061187d57fe5b60200260200101519150915060006118958383611d12565b50905060008785600101815181106118a957fe5b60200260200101519050600080836001600160a01b0316866001600160a01b0316146118d7578260006118db565b6000835b91509150600060028a510388106118f25788611926565b6119267f0000000000000000000000000000000000000000000000000000000000000000878c8b60020181518110610cee57fe5b90506119537f000000000000000000000000000000000000000000000000000000000000000088886117d8565b6001600160a01b031663022c0d9f84848460006040519080825280601f01601f191660200182016040528015611990576020820181803683370190505b506040518563ffffffff1660e01b81526004016119b094939291906126aa565b600060405180830381600087803b1580156119ca57600080fd5b505af11580156119de573d6000803e3d6000fd5b50506001909901985061184b975050505050505050565b50505050565b604080516001808252818301909252606091602080830190803683370190505090507f000000000000000000000000000000000000000000000000000000000000000081600081518110611a4b57fe5b6001600160a01b0392831660209182029290920101526040516345accf9360e11b81526000917f00000000000000000000000000000000000000000000000000000000000000001690638b599f2690611aaa908590309060040161222b565b60206040518083038186803b158015611ac257600080fd5b505afa158015611ad6573d6000803e3d6000fd5b505050506040513d601f19601f82011682018060405250810190611afa9190612024565b604051633111e7b360e01b81529091506001600160a01b037f00000000000000000000000000000000000000000000000000000000000000001690633111e7b390611b4d90859085903090600401612256565b602060405180830381600087803b158015611b6757600080fd5b505af1158015611b7b573d6000803e3d6000fd5b505050506040513d601f19601f820116820180604052508101906103949190612024565b6000806000611bae8585611d12565b509050600080611bbf8888886117d8565b6001600160a01b0316630902f1ac6040518163ffffffff1660e01b815260040160606040518083038186803b158015611bf757600080fd5b505afa158015611c0b573d6000803e3d6000fd5b505050506040513d601f19601f82011682018060405250810190611c2f9190611fc3565b506001600160701b031691506001600160701b03169150826001600160a01b0316876001600160a01b031614611c66578082611c69565b81815b90999098509650505050505050565b6000808411611c995760405162461bcd60e51b81526004016102d490612651565b600083118015611ca95750600082115b611cc55760405162461bcd60e51b81526004016102d490612420565b6000611cd3856103e5611d9c565b90506000611ce18285611d9c565b90506000611cfb83611cf5886103e8611d9c565b90611dd3565b9050808281611d0657fe5b04979650505050505050565b600080826001600160a01b0316846001600160a01b03161415611d475760405162461bcd60e51b81526004016102d4906123a4565b826001600160a01b0316846001600160a01b031610611d67578284611d6a565b83835b90925090506001600160a01b038216611d955760405162461bcd60e51b81526004016102d49061261a565b9250929050565b6000811580611db757505080820282828281611db457fe5b04145b6106305760405162461bcd60e51b81526004016102d490612319565b808201828110156106305760405162461bcd60e51b81526004016102d490612347565b80356001600160a01b038116811461063057600080fd5b80516001600160801b038116811461063057600080fd5b600060208284031215611e35578081fd5b611e3f8383611df6565b9392505050565b60008060408385031215611e58578081fd5b611e628484611df6565b91506020830135611e728161277e565b809150509250929050565b600080600060608486031215611e91578081fd5b611e9b8585611df6565b92506020840135611eab8161277e565b91506040840135611ebb8161277e565b809150509250925092565b600080600060608486031215611eda578283fd5b83356001600160a01b0381168114611ef0578384fd5b925060208401359150604084013567ffffffffffffffff811115611f12578182fd5b8401601f81018613611f22578182fd5b8035611f35611f3082612722565b6126fb565b818152876020838501011115611f49578384fd5b611f5a826020830160208601612746565b8093505050509250925092565b600060208284031215611f78578081fd5b8151611e3f8161277e565b600060408284031215611f94578081fd5b611f9e60406126fb565b611fa88484611e0d565b8152611fb78460208501611e0d565b60208201529392505050565b600080600060608486031215611fd7578283fd5b8351611fe28161278c565b6020850151909350611ff38161278c565b604085015190925063ffffffff81168114611ebb578182fd5b60006020828403121561201d578081fd5b5035919050565b600060208284031215612035578081fd5b5051919050565b6000806040838503121561204e578182fd5b8235915061205f8460208501611df6565b90509250929050565b6000806000806080858703121561207d578081fd5b84359350602085013561208f8161277e565b92506040850135915060608501356120a68161277e565b939692955090935050565b6000815180845260208085019450808401835b838110156120e95781516001600160a01b0316875295820195908201906001016120c4565b509495945050505050565b6bffffffffffffffffffffffff19606093841b811682529190921b16601482015260280190565b6000825161212d818460208701612752565b9190910192915050565b6001600160f81b0319815260609290921b6bffffffffffffffffffffffff1916600183015260158201527fe18a34eb0e04b04f7a0ac29a6e80748dca96319b42c54d679cb821dca90c6303603582015260550190565b6001600160a01b0391909116815260200190565b6001600160a01b039390931683529015156020830152604082015260600190565b6001600160a01b03929092168252602082015260400190565b6001600160a01b0393841681526020810192909252909116604082015260600190565b6001600160a01b03948516815260208101939093529216604082015261ffff909116606082015260800190565b60006040825261223e60408301856120b1565b90506001600160a01b03831660208301529392505050565b60006060825261226960608301866120b1565b90508360208301526001600160a01b0383166040830152949350505050565b901515815260200190565b90815260200190565b60208082526026908201527f42656e746f426f782053747261746567793a20696e73756666696369656e74206040820152651bdd5d1c1d5d60d21b606082015260800190565b6020808252601c908201527f426f72696e6745524332303a205472616e73666572206661696c656400000000604082015260600190565b60208082526014908201527364732d6d6174682d6d756c2d6f766572666c6f7760601b604082015260600190565b60208082526014908201527364732d6d6174682d6164642d6f766572666c6f7760601b604082015260600190565b6020808252601590820152744f776e61626c653a207a65726f206164647265737360581b604082015260600190565b60208082526025908201527f556e697377617056324c6962726172793a204944454e544943414c5f41444452604082015264455353455360d81b606082015260800190565b6020808252601e908201527f556e697377617056324c6962726172793a20494e56414c49445f504154480000604082015260600190565b60208082526028908201527f556e697377617056324c6962726172793a20494e53554646494349454e545f4c604082015267495155494449545960c01b606082015260800190565b6020808252601d908201527f42656e746f426f782053747261746567793a206f6e6c792062656e746f000000604082015260600190565b6020808252818101527f4f776e61626c653a2063616c6c6572206973206e6f7420746865206f776e6572604082015260600190565b6020808252601d908201527f42656e746f426f782053747261746567793a206e6f7420657869746564000000604082015260600190565b60208082526019908201527f42656e746f426f782053747261746567793a2065786974656400000000000000604082015260600190565b6020808252818101527f4f776e61626c653a2063616c6c657220213d2070656e64696e67206f776e6572604082015260600190565b6020808252601f908201527f42656e746f426f782053747261746567793a20696e76616c6964207377617000604082015260600190565b6020808252601d908201527f426f72696e6745524332303a2042616c616e63654f66206661696c6564000000604082015260600190565b6020808252818101527f42656e746f426f782053747261746567793a206f6e6c79206578656375746f72604082015260600190565b6020808252601e908201527f556e697377617056324c6962726172793a205a45524f5f414444524553530000604082015260600190565b6020808252602b908201527f556e697377617056324c6962726172793a20494e53554646494349454e545f4960408201526a1394155517d05353d5539560aa1b606082015260800190565b918252602082015260400190565b60008582528460208301526001600160a01b03841660408301526080606083015282518060808401526126e48160a0850160208701612752565b601f01601f19169190910160a00195945050505050565b60405181810167ffffffffffffffff8111828210171561271a57600080fd5b604052919050565b600067ffffffffffffffff821115612738578081fd5b50601f01601f191660200190565b82818337506000910152565b60005b8381101561276d578181015183820152602001612755565b838111156119f55750506000910152565b801515811461082057600080fd5b6001600160701b038116811461082057600080fdfea2646970667358221220b57e50ac308c14134f9e67403ed21737cf2a035f4216339f37e98765331494af64736f6c634300060c0033",
  "devdoc": {
    "kind": "dev",
    "methods": {
      "afterExit(address,uint256,bytes)": {
        "details": "After exited, the owner can perform ANY call. This is to rescue any funds that didn't get released during exit or got earned afterwards due to vesting or airdrops, etc. "
      },
      "exit(uint256)": {
        "params": {
          "balance": "The amount of tokens the caller thinks it has invested."
        },
        "returns": {
          "amountAdded": "The delta (+profit or -loss) that occured in contrast to `balance`."
        }
      },
      "harvest(uint256,address)": {
        "details": "Only BentoBox can call harvest on this strategy.Ensures that (1) the caller was this contract (called through the safeHarvest function) and (2) that we are not being frontrun by a large BentoBox deposit when harvesting profits. ",
        "params": {
          "balance": "The amount of tokens the caller thinks it has invested.",
          "sender": "The address of the initiator of this transaction. Can be used for reimbursements, etc."
        },
        "returns": {
          "_0": "amountAdded The delta (+profit or -loss) that occured in contrast to `balance`."
        }
      },
      "safeHarvest(uint256,bool,uint256,bool)": {
        "details": "maxBalance can be set to 0 to keep the previous value.maxChangeAmount can be set to 0 to allow for full rebalancing.",
        "params": {
          "harvestRewards": "If we want to claim any accrued reward tokens",
          "maxBalance": "The maximum balance of the underlying token that is allowed to be in BentoBox.",
          "maxChangeAmount": "When rebalancing - the maximum amount that will be deposited to or withdrawn from a strategy.",
          "rebalance": "Whether BentoBox should rebalance the strategy assets to acheive it's target allocation."
        }
      },
      "skim(uint256)": {
        "params": {
          "amount": "The amount of tokens to invest."
        }
      },
      "transferOwnership(address,bool,bool)": {
        "params": {
          "direct": "True if `newOwner` should be set immediately. False if `newOwner` needs to use `claimOwnership`.",
          "newOwner": "Address of the new owner.",
          "renounce": "Allows the `newOwner` to be `address(0)` if `direct` and `renounce` is True. Has no effect otherwise."
        }
      },
      "withdraw(uint256)": {
        "details": "The `actualAmount` should be very close to the amount. The difference should NOT be used to report a loss. That's what harvest is for.",
        "params": {
          "amount": "The requested amount the caller wants to withdraw."
        },
        "returns": {
          "actualAmount": "The real amount that is withdrawn."
        }
      }
    },
    "version": 1
  },
  "userdoc": {
    "kind": "user",
    "methods": {
      "claimOwnership()": {
        "notice": "Needs to be called by `pendingOwner` to claim ownership."
      },
      "exit(uint256)": {
        "notice": "Withdraw all assets in the safest way possible. This shouldn't fail."
      },
      "harvest(uint256,address)": {
        "notice": "Harvest any profits made converted to the asset and pass them to the caller."
      },
      "safeHarvest(uint256,bool,uint256,bool)": {
        "notice": "Harvest profits while preventing a sandwich attack exploit."
      },
      "skim(uint256)": {
        "notice": "Send the assets to the Strategy and call skim to invest them."
      },
      "swapExactTokensForUnderlying(uint256,address)": {
        "notice": "Swap some tokens in the contract for the underlying and deposits them to address(this)"
      },
      "transferOwnership(address,bool,bool)": {
        "notice": "Transfers ownership to `newOwner`. Either directly or claimable by the new pending owner. Can only be invoked by the current `owner`."
      },
      "withdraw(uint256)": {
        "notice": "Withdraw assets. The returned amount can differ from the requested amount due to rounding."
      }
    },
    "version": 1
  },
  "storageLayout": {
    "storage": [
      {
        "astId": 199,
        "contract": "contracts/strategies/implementations/AaveStrategy.sol:AaveStrategy",
        "label": "owner",
        "offset": 0,
        "slot": "0",
        "type": "t_address"
      },
      {
        "astId": 201,
        "contract": "contracts/strategies/implementations/AaveStrategy.sol:AaveStrategy",
        "label": "pendingOwner",
        "offset": 0,
        "slot": "1",
        "type": "t_address"
      },
      {
        "astId": 6684,
        "contract": "contracts/strategies/implementations/AaveStrategy.sol:AaveStrategy",
        "label": "exited",
        "offset": 20,
        "slot": "1",
        "type": "t_bool"
      },
      {
        "astId": 6686,
        "contract": "contracts/strategies/implementations/AaveStrategy.sol:AaveStrategy",
        "label": "maxBentoBoxBalance",
        "offset": 0,
        "slot": "2",
        "type": "t_uint256"
      },
      {
        "astId": 6690,
        "contract": "contracts/strategies/implementations/AaveStrategy.sol:AaveStrategy",
        "label": "strategyExecutors",
        "offset": 0,
        "slot": "3",
        "type": "t_mapping(t_address,t_bool)"
      }
    ],
    "types": {
      "t_address": {
        "encoding": "inplace",
        "label": "address",
        "numberOfBytes": "20"
      },
      "t_bool": {
        "encoding": "inplace",
        "label": "bool",
        "numberOfBytes": "1"
      },
      "t_mapping(t_address,t_bool)": {
        "encoding": "mapping",
        "key": "t_address",
        "label": "mapping(address => bool)",
        "numberOfBytes": "32",
        "value": "t_bool"
      },
      "t_uint256": {
        "encoding": "inplace",
        "label": "uint256",
        "numberOfBytes": "32"
      }
    }
  }
}